{
  "contractName": "Arguments",
  "abi": [
    {
      "inputs": [],
      "stateMutability": "nonpayable",
      "type": "constructor"
    },
    {
      "inputs": [
        {
          "internalType": "address",
          "name": "_truthAddress",
          "type": "address"
        }
      ],
      "name": "setTruthAddress",
      "outputs": [],
      "stateMutability": "nonpayable",
      "type": "function"
    },
    {
      "inputs": [
        {
          "internalType": "string",
          "name": "text",
          "type": "string"
        }
      ],
      "name": "create",
      "outputs": [],
      "stateMutability": "nonpayable",
      "type": "function"
    },
    {
      "inputs": [],
      "name": "active",
      "outputs": [
        {
          "internalType": "uint256[]",
          "name": "",
          "type": "uint256[]"
        }
      ],
      "stateMutability": "view",
      "type": "function",
      "constant": true
    },
    {
      "inputs": [],
      "name": "requiringReview",
      "outputs": [
        {
          "internalType": "uint256[]",
          "name": "",
          "type": "uint256[]"
        }
      ],
      "stateMutability": "view",
      "type": "function",
      "constant": true
    },
    {
      "inputs": [],
      "name": "mine",
      "outputs": [
        {
          "internalType": "uint256[]",
          "name": "",
          "type": "uint256[]"
        }
      ],
      "stateMutability": "view",
      "type": "function",
      "constant": true
    },
    {
      "inputs": [
        {
          "internalType": "uint256",
          "name": "argumentId",
          "type": "uint256"
        }
      ],
      "name": "getDetails",
      "outputs": [
        {
          "internalType": "string",
          "name": "",
          "type": "string"
        },
        {
          "internalType": "enum Arguments.Status",
          "name": "",
          "type": "uint8"
        }
      ],
      "stateMutability": "view",
      "type": "function",
      "constant": true
    },
    {
      "inputs": [
        {
          "internalType": "uint256",
          "name": "argumentId",
          "type": "uint256"
        }
      ],
      "name": "getStatus",
      "outputs": [
        {
          "internalType": "enum Arguments.Status",
          "name": "",
          "type": "uint8"
        }
      ],
      "stateMutability": "view",
      "type": "function",
      "constant": true
    },
    {
      "inputs": [
        {
          "internalType": "uint256",
          "name": "argumentId",
          "type": "uint256"
        }
      ],
      "name": "isDebating",
      "outputs": [
        {
          "internalType": "bool",
          "name": "",
          "type": "bool"
        }
      ],
      "stateMutability": "view",
      "type": "function",
      "constant": true
    },
    {
      "inputs": [
        {
          "internalType": "uint256",
          "name": "argumentId",
          "type": "uint256"
        }
      ],
      "name": "approve",
      "outputs": [],
      "stateMutability": "nonpayable",
      "type": "function"
    },
    {
      "inputs": [
        {
          "internalType": "uint256",
          "name": "argumentId",
          "type": "uint256"
        }
      ],
      "name": "startDebating",
      "outputs": [],
      "stateMutability": "nonpayable",
      "type": "function"
    },
    {
      "inputs": [
        {
          "internalType": "uint256",
          "name": "argumentId",
          "type": "uint256"
        }
      ],
      "name": "reject",
      "outputs": [],
      "stateMutability": "nonpayable",
      "type": "function"
    },
    {
      "inputs": [
        {
          "internalType": "uint256",
          "name": "argumentId",
          "type": "uint256"
        }
      ],
      "name": "endDebating",
      "outputs": [],
      "stateMutability": "nonpayable",
      "type": "function"
    }
  ],
  "bytecode": "0x608060405234801561001057600080fd5b5033600260006101000a81548173ffffffffffffffffffffffffffffffffffffffff021916908373ffffffffffffffffffffffffffffffffffffffff1602179055506000600881905550611aee806100696000396000f3fe608060405234801561001057600080fd5b50600436106100b45760003560e01c806399f4b2511161007157806399f4b2511461018b578063b6a46b3b146101a9578063b759f954146101c5578063b8adaa11146101e1578063b93a89f7146101fd578063c82ec6811461022e576100b4565b806302fb0c5e146100b957806315669744146100d757806316b25b71146100f357806325c98fc61461012357806346212cbf1461013f5780635c622a0e1461015b575b600080fd5b6100c161024c565b6040516100ce9190611105565b60405180910390f35b6100f160048036038101906100ec9190611199565b6102a4565b005b61010d600480360381019061010891906111f2565b6103b8565b60405161011a919061123a565b60405180910390f35b61013d600480360381019061013891906111f2565b61040c565b005b610159600480360381019061015491906111f2565b61052f565b005b610175600480360381019061017091906111f2565b6106d4565b60405161018291906112cc565b60405180910390f35b610193610701565b6040516101a09190611105565b60405180910390f35b6101c360048036038101906101be919061142d565b610796565b005b6101df60048036038101906101da91906111f2565b6108bf565b005b6101fb60048036038101906101f691906111f2565b610a76565b005b610217600480360381019061021291906111f2565b610c24565b6040516102259291906114fe565b60405180910390f35b610236610d2a565b6040516102439190611105565b60405180910390f35b6060600380548060200260200160405190810160405280929190818152602001828054801561029a57602002820191906000526020600020905b815481526020019060010190808311610286575b5050505050905090565b600260009054906101000a900473ffffffffffffffffffffffffffffffffffffffff1673ffffffffffffffffffffffffffffffffffffffff163373ffffffffffffffffffffffffffffffffffffffff1614610334576040517f08c379a000000000000000000000000000000000000000000000000000000000815260040161032b906115a0565b60405180910390fd5b80600160006101000a81548173ffffffffffffffffffffffffffffffffffffffff021916908373ffffffffffffffffffffffffffffffffffffffff160217905550806000806101000a81548173ffffffffffffffffffffffffffffffffffffffff021916908373ffffffffffffffffffffffffffffffffffffffff16021790555050565b6000600360048111156103ce576103cd611255565b5b600a600084815260200190815260200160002060010160009054906101000a900460ff16600481111561040457610403611255565b5b149050919050565b600160009054906101000a900473ffffffffffffffffffffffffffffffffffffffff1673ffffffffffffffffffffffffffffffffffffffff163373ffffffffffffffffffffffffffffffffffffffff161461049c576040517f08c379a000000000000000000000000000000000000000000000000000000000815260040161049390611632565b60405180910390fd5b6104a5816103b8565b6104e4576040517f08c379a00000000000000000000000000000000000000000000000000000000081526004016104db9061169e565b60405180910390fd5b6004600a600083815260200190815260200160002060010160006101000a81548160ff0219169083600481111561051e5761051d611255565b5b021790555061052c81610d82565b50565b60008054906101000a900473ffffffffffffffffffffffffffffffffffffffff1673ffffffffffffffffffffffffffffffffffffffff1663fa6f3936336040518263ffffffff1660e01b815260040161058891906116cd565b602060405180830381865afa1580156105a5573d6000803e3d6000fd5b505050506040513d601f19601f820116820180604052508101906105c99190611714565b610608576040517f08c379a00000000000000000000000000000000000000000000000000000000081526004016105ff906117b3565b60405180910390fd5b6002600481111561061c5761061b611255565b5b600a600083815260200190815260200160002060010160009054906101000a900460ff16600481111561065257610651611255565b5b14610692576040517f08c379a000000000000000000000000000000000000000000000000000000000815260040161068990611845565b60405180910390fd5b6003600a600083815260200190815260200160002060010160006101000a81548160ff021916908360048111156106cc576106cb611255565b5b021790555050565b6000600a600083815260200190815260200160002060010160009054906101000a900460ff169050919050565b6060600960003373ffffffffffffffffffffffffffffffffffffffff1673ffffffffffffffffffffffffffffffffffffffff16815260200190815260200160002080548060200260200160405190810160405280929190818152602001828054801561078c57602002820191906000526020600020905b815481526020019060010190808311610778575b5050505050905090565b600860008154809291906107a990611894565b9190505550600060085460006107bf91906118dd565b9050600960003373ffffffffffffffffffffffffffffffffffffffff1673ffffffffffffffffffffffffffffffffffffffff16815260200190815260200160002081908060018154018082558091505060019003906000526020600020016000909190919091505560405180604001604052808381526020016000600481111561084c5761084b611255565b5b815250600a6000838152602001908152602001600020600082015181600001908051906020019061087e929190610f9a565b5060208201518160010160006101000a81548160ff021916908360048111156108aa576108a9611255565b5b02179055509050506108bb81610e45565b5050565b60008054906101000a900473ffffffffffffffffffffffffffffffffffffffff1673ffffffffffffffffffffffffffffffffffffffff1663fa6f3936336040518263ffffffff1660e01b815260040161091891906116cd565b602060405180830381865afa158015610935573d6000803e3d6000fd5b505050506040513d601f19601f820116820180604052508101906109599190611714565b610998576040517f08c379a000000000000000000000000000000000000000000000000000000000815260040161098f906117b3565b60405180910390fd5b600060048111156109ac576109ab611255565b5b600a600083815260200190815260200160002060010160009054906101000a900460ff1660048111156109e2576109e1611255565b5b14610a22576040517f08c379a0000000000000000000000000000000000000000000000000000000008152600401610a19906119a5565b60405180910390fd5b6002600a600083815260200190815260200160002060010160006101000a81548160ff02191690836004811115610a5c57610a5b611255565b5b0217905550610a6a81610e8e565b610a7381610f51565b50565b60008054906101000a900473ffffffffffffffffffffffffffffffffffffffff1673ffffffffffffffffffffffffffffffffffffffff1663fa6f3936336040518263ffffffff1660e01b8152600401610acf91906116cd565b602060405180830381865afa158015610aec573d6000803e3d6000fd5b505050506040513d601f19601f82011682018060405250810190610b109190611714565b610b4f576040517f08c379a0000000000000000000000000000000000000000000000000000000008152600401610b46906117b3565b60405180910390fd5b60006004811115610b6357610b62611255565b5b600a600083815260200190815260200160002060010160009054906101000a900460ff166004811115610b9957610b98611255565b5b14610bd9576040517f08c379a0000000000000000000000000000000000000000000000000000000008152600401610bd0906119a5565b60405180910390fd5b6001600a600083815260200190815260200160002060010160006101000a81548160ff02191690836004811115610c1357610c12611255565b5b0217905550610c2181610e8e565b50565b6060600080600a6000858152602001908152602001600020604051806040016040529081600082018054610c57906119f4565b80601f0160208091040260200160405190810160405280929190818152602001828054610c83906119f4565b8015610cd05780601f10610ca557610100808354040283529160200191610cd0565b820191906000526020600020905b815481529060010190602001808311610cb357829003601f168201915b505050505081526020016001820160009054906101000a900460ff166004811115610cfe57610cfd611255565b5b6004811115610d1057610d0f611255565b5b815250509050806000015181602001519250925050915091565b60606005805480602002602001604051908101604052809291908181526020018280548015610d7857602002820191906000526020600020905b815481526020019060010190808311610d64575b5050505050905090565b60016003805490501115610e1a57600060046000838152602001908152602001600020549050600060036001600380549050610dbe9190611a26565b81548110610dcf57610dce611a5a565b5b906000526020600020015490508060038381548110610df157610df0611a5a565b5b906000526020600020018190555081600460008381526020019081526020016000208190555050505b6003805480610e2c57610e2b611a89565b5b6001900381819060005260206000200160009055905550565b6005805490506006600083815260200190815260200160002081905550600581908060018154018082558091505060019003906000526020600020016000909190919091505550565b60016005805490501115610f2657600060066000838152602001908152602001600020549050600060056001600580549050610eca9190611a26565b81548110610edb57610eda611a5a565b5b906000526020600020015490508060058381548110610efd57610efc611a5a565b5b906000526020600020018190555081600660008381526020019081526020016000208190555050505b6005805480610f3857610f37611a89565b5b6001900381819060005260206000200160009055905550565b6003805490506004600083815260200190815260200160002081905550600381908060018154018082558091505060019003906000526020600020016000909190919091505550565b828054610fa6906119f4565b90600052602060002090601f016020900481019282610fc8576000855561100f565b82601f10610fe157805160ff191683800117855561100f565b8280016001018555821561100f579182015b8281111561100e578251825591602001919060010190610ff3565b5b50905061101c9190611020565b5090565b5b80821115611039576000816000905550600101611021565b5090565b600081519050919050565b600082825260208201905092915050565b6000819050602082019050919050565b6000819050919050565b61107c81611069565b82525050565b600061108e8383611073565b60208301905092915050565b6000602082019050919050565b60006110b28261103d565b6110bc8185611048565b93506110c783611059565b8060005b838110156110f85781516110df8882611082565b97506110ea8361109a565b9250506001810190506110cb565b5085935050505092915050565b6000602082019050818103600083015261111f81846110a7565b905092915050565b6000604051905090565b600080fd5b600080fd5b600073ffffffffffffffffffffffffffffffffffffffff82169050919050565b60006111668261113b565b9050919050565b6111768161115b565b811461118157600080fd5b50565b6000813590506111938161116d565b92915050565b6000602082840312156111af576111ae611131565b5b60006111bd84828501611184565b91505092915050565b6111cf81611069565b81146111da57600080fd5b50565b6000813590506111ec816111c6565b92915050565b60006020828403121561120857611207611131565b5b6000611216848285016111dd565b91505092915050565b60008115159050919050565b6112348161121f565b82525050565b600060208201905061124f600083018461122b565b92915050565b7f4e487b7100000000000000000000000000000000000000000000000000000000600052602160045260246000fd5b6005811061129557611294611255565b5b50565b60008190506112a682611284565b919050565b60006112b682611298565b9050919050565b6112c6816112ab565b82525050565b60006020820190506112e160008301846112bd565b92915050565b600080fd5b600080fd5b6000601f19601f8301169050919050565b7f4e487b7100000000000000000000000000000000000000000000000000000000600052604160045260246000fd5b61133a826112f1565b810181811067ffffffffffffffff8211171561135957611358611302565b5b80604052505050565b600061136c611127565b90506113788282611331565b919050565b600067ffffffffffffffff82111561139857611397611302565b5b6113a1826112f1565b9050602081019050919050565b82818337600083830152505050565b60006113d06113cb8461137d565b611362565b9050828152602081018484840111156113ec576113eb6112ec565b5b6113f78482856113ae565b509392505050565b600082601f830112611414576114136112e7565b5b81356114248482602086016113bd565b91505092915050565b60006020828403121561144357611442611131565b5b600082013567ffffffffffffffff81111561146157611460611136565b5b61146d848285016113ff565b91505092915050565b600081519050919050565b600082825260208201905092915050565b60005b838110156114b0578082015181840152602081019050611495565b838111156114bf576000848401525b50505050565b60006114d082611476565b6114da8185611481565b93506114ea818560208601611492565b6114f3816112f1565b840191505092915050565b6000604082019050818103600083015261151881856114c5565b905061152760208301846112bd565b9392505050565b7f54727574684f776e61626c653a2063616e206f6e6c792062652063616c6c656460008201527f206279204f776e65720000000000000000000000000000000000000000000000602082015250565b600061158a602983611481565b91506115958261152e565b604082019050919050565b600060208201905081810360008301526115b98161157d565b9050919050565b7f54727574684f776e61626c653a2063616e206f6e6c792062652063616c6c656460008201527f2062792054727574680000000000000000000000000000000000000000000000602082015250565b600061161c602983611481565b9150611627826115c0565b604082019050919050565b6000602082019050818103600083015261164b8161160f565b9050919050565b7f417267756d656e7420537461747573206d757374206265204465626174696e67600082015250565b6000611688602083611481565b915061169382611652565b602082019050919050565b600060208201905081810360008301526116b78161167b565b9050919050565b6116c78161115b565b82525050565b60006020820190506116e260008301846116be565b92915050565b6116f18161121f565b81146116fc57600080fd5b50565b60008151905061170e816116e8565b92915050565b60006020828403121561172a57611729611131565b5b6000611738848285016116ff565b91505092915050565b7f54727574684f776e61626c653a2063616e206f6e6c792062652063616c6c656460008201527f2062792061204d6f64657261746f720000000000000000000000000000000000602082015250565b600061179d602f83611481565b91506117a882611741565b604082019050919050565b600060208201905081810360008301526117cc81611790565b9050919050565b7f417267756d656e7420537461747573206d75737420626520696e20426574746960008201527f6e67000000000000000000000000000000000000000000000000000000000000602082015250565b600061182f602283611481565b915061183a826117d3565b604082019050919050565b6000602082019050818103600083015261185e81611822565b9050919050565b7f4e487b7100000000000000000000000000000000000000000000000000000000600052601160045260246000fd5b600061189f82611069565b91507fffffffffffffffffffffffffffffffffffffffffffffffffffffffffffffffff8214156118d2576118d1611865565b5b600182019050919050565b60006118e882611069565b91506118f383611069565b9250827fffffffffffffffffffffffffffffffffffffffffffffffffffffffffffffffff0382111561192857611927611865565b5b828201905092915050565b7f417267756d656e7420537461747573206d75737420626520696e204e6565647360008201527f2052657669657700000000000000000000000000000000000000000000000000602082015250565b600061198f602783611481565b915061199a82611933565b604082019050919050565b600060208201905081810360008301526119be81611982565b9050919050565b7f4e487b7100000000000000000000000000000000000000000000000000000000600052602260045260246000fd5b60006002820490506001821680611a0c57607f821691505b60208210811415611a2057611a1f6119c5565b5b50919050565b6000611a3182611069565b9150611a3c83611069565b925082821015611a4f57611a4e611865565b5b828203905092915050565b7f4e487b7100000000000000000000000000000000000000000000000000000000600052603260045260246000fd5b7f4e487b7100000000000000000000000000000000000000000000000000000000600052603160045260246000fdfea26469706673582212205ee2d8e55dce4d412ec62785b4d33f49bc3bb49011d539733a072e673d3380bf64736f6c634300080a0033",
  "immutableReferences": {},
  "source": "// SPDX-License-Identifier: MIT\npragma solidity >=0.4.22 <0.9.0;\n\nimport \"./Truth.sol\";\nimport \"./TruthOwnable.sol\";\nimport \"./Reviewable.sol\";\n\ncontract Arguments is TruthOwnable, Reviewable  {\n  struct Argument {\n    string text;\n    Status status;\n  }\n  // CAUTION! DUPLICATED CODE!\n  // IF YOU CHANGE THIS ENUM, ALSO CHANGE THE\n  // STATUSES ARRAY AT THE TOP OF Argument.js\n  enum Status{ NEEDS_REVIEW, REJECTED, BETTING, DEBATING, FINISHED }\n  Status constant defaultStatus = Status.NEEDS_REVIEW;\n\n  uint[] allArguments;\n  uint numArguments;\n  \n  mapping (address => uint[]) byDebaterAddress;\n\n  mapping (uint => Argument) arguments;\n\n  constructor() {\n    numArguments = 0;\n  }\n\n  function create(string memory text) public {\n    numArguments ++;\n    uint argumentId = 0 + numArguments;\n    byDebaterAddress[msg.sender].push(argumentId);\n    arguments[argumentId] = Argument(text, defaultStatus);\n    addToRequiringReview(argumentId);\n  }\n\n  function active() public view returns(uint[] memory) {\n    return activeItems;\n  }\n\n  function requiringReview() public view returns(uint[] memory) {\n    return requiringReviewItems;\n  }\n\n  function mine() public view returns(uint[] memory) {\n    return byDebaterAddress[msg.sender];\n  }\n\n  function getDetails(uint argumentId) public view returns (string memory, Status) {\n    Argument memory argument = arguments[argumentId];\n    return (argument.text, argument.status);\n  }\n\n  function getStatus(uint argumentId) public view returns (Status) {\n    return arguments[argumentId].status;\n  }\n  \n  function isDebating(uint argumentId) public view returns (bool) {\n    return arguments[argumentId].status == Status.DEBATING;\n  }\n\n  function approve(uint argumentId) public onlyModerator {\n    require(arguments[argumentId].status == Status.NEEDS_REVIEW, \"Argument Status must be in Needs Review\");\n    arguments[argumentId].status = Status.BETTING;\n    removeFromRequiringReview(argumentId);\n    addToActive(argumentId);\n  }\n\n  function startDebating(uint argumentId) public onlyModerator {\n    require(arguments[argumentId].status == Status.BETTING, \"Argument Status must be in Betting\");\n    arguments[argumentId].status = Status.DEBATING;\n  }\n\n  function reject(uint argumentId) public onlyModerator {\n    require(arguments[argumentId].status == Status.NEEDS_REVIEW, \"Argument Status must be in Needs Review\");\n    arguments[argumentId].status = Status.REJECTED;\n    removeFromRequiringReview(argumentId);\n  }\n\n  function endDebating(uint argumentId) public onlyTruth {\n    require(isDebating(argumentId), \"Argument Status must be Debating\");\n    arguments[argumentId].status = Status.FINISHED;\n    removeFromActive(argumentId);\n  }\n}\n",
  "sourcePath": "/Users/jake/socratiq/contracts/Arguments.sol",
  "compiler": {
    "name": "solc",
    "version": "0.8.10+commit.fc410830.Emscripten.clang"
  },
  "schemaVersion": "3.4.4",
  "updatedAt": "2022-01-07T04:44:45.086Z",
  "networkType": "ethereum",
  "devdoc": {
    "kind": "dev",
    "methods": {},
    "version": 1
  },
  "userdoc": {
    "kind": "user",
    "methods": {},
    "version": 1
  }
}