{
  "contractName": "Arguments",
  "abi": [
    {
      "inputs": [],
      "stateMutability": "nonpayable",
      "type": "constructor"
    },
    {
      "inputs": [
        {
          "internalType": "address",
          "name": "_truthAddress",
          "type": "address"
        }
      ],
      "name": "setTruthAddress",
      "outputs": [],
      "stateMutability": "nonpayable",
      "type": "function"
    },
    {
      "inputs": [
        {
          "internalType": "string",
          "name": "text",
          "type": "string"
        }
      ],
      "name": "create",
      "outputs": [],
      "stateMutability": "nonpayable",
      "type": "function"
    },
    {
      "inputs": [],
      "name": "active",
      "outputs": [
        {
          "internalType": "uint256[]",
          "name": "",
          "type": "uint256[]"
        }
      ],
      "stateMutability": "view",
      "type": "function"
    },
    {
      "inputs": [],
      "name": "requiringReview",
      "outputs": [
        {
          "internalType": "uint256[]",
          "name": "",
          "type": "uint256[]"
        }
      ],
      "stateMutability": "view",
      "type": "function"
    },
    {
      "inputs": [],
      "name": "mine",
      "outputs": [
        {
          "internalType": "uint256[]",
          "name": "",
          "type": "uint256[]"
        }
      ],
      "stateMutability": "view",
      "type": "function"
    },
    {
      "inputs": [
        {
          "internalType": "uint256",
          "name": "argumentId",
          "type": "uint256"
        }
      ],
      "name": "getDetails",
      "outputs": [
        {
          "internalType": "string",
          "name": "",
          "type": "string"
        },
        {
          "internalType": "enum Arguments.Status",
          "name": "",
          "type": "uint8"
        }
      ],
      "stateMutability": "view",
      "type": "function"
    },
    {
      "inputs": [
        {
          "internalType": "uint256",
          "name": "argumentId",
          "type": "uint256"
        }
      ],
      "name": "getStatus",
      "outputs": [
        {
          "internalType": "enum Arguments.Status",
          "name": "",
          "type": "uint8"
        }
      ],
      "stateMutability": "view",
      "type": "function"
    },
    {
      "inputs": [
        {
          "internalType": "uint256",
          "name": "argumentId",
          "type": "uint256"
        }
      ],
      "name": "isDebating",
      "outputs": [
        {
          "internalType": "bool",
          "name": "",
          "type": "bool"
        }
      ],
      "stateMutability": "view",
      "type": "function"
    },
    {
      "inputs": [
        {
          "internalType": "uint256",
          "name": "argumentId",
          "type": "uint256"
        }
      ],
      "name": "approve",
      "outputs": [],
      "stateMutability": "nonpayable",
      "type": "function"
    },
    {
      "inputs": [
        {
          "internalType": "uint256",
          "name": "argumentId",
          "type": "uint256"
        }
      ],
      "name": "startDebating",
      "outputs": [],
      "stateMutability": "nonpayable",
      "type": "function"
    },
    {
      "inputs": [
        {
          "internalType": "uint256",
          "name": "argumentId",
          "type": "uint256"
        }
      ],
      "name": "reject",
      "outputs": [],
      "stateMutability": "nonpayable",
      "type": "function"
    },
    {
      "inputs": [
        {
          "internalType": "uint256",
          "name": "argumentId",
          "type": "uint256"
        }
      ],
      "name": "endDebating",
      "outputs": [],
      "stateMutability": "nonpayable",
      "type": "function"
    }
  ],
  "bytecode": "0x608060405234801561001057600080fd5b5033600260006101000a81548173ffffffffffffffffffffffffffffffffffffffff021916908373ffffffffffffffffffffffffffffffffffffffff1602179055506000600881905550611c55806100696000396000f3fe608060405234801561001057600080fd5b50600436106100b45760003560e01c806399f4b2511161007157806399f4b2511461018b578063b6a46b3b146101a9578063b759f954146101c5578063b8adaa11146101e1578063b93a89f7146101fd578063c82ec6811461022e576100b4565b806302fb0c5e146100b957806315669744146100d757806316b25b71146100f357806325c98fc61461012357806346212cbf1461013f5780635c622a0e1461015b575b600080fd5b6100c161024c565b6040516100ce9190611194565b60405180910390f35b6100f160048036038101906100ec9190611228565b6102a4565b005b61010d60048036038101906101089190611281565b6103b8565b60405161011a91906112c9565b60405180910390f35b61013d60048036038101906101389190611281565b61040c565b005b61015960048036038101906101549190611281565b61052f565b005b61017560048036038101906101709190611281565b6106d4565b604051610182919061135b565b60405180910390f35b610193610701565b6040516101a09190611194565b60405180910390f35b6101c360048036038101906101be91906114bc565b610796565b005b6101df60048036038101906101da9190611281565b61094e565b005b6101fb60048036038101906101f69190611281565b610b05565b005b61021760048036038101906102129190611281565b610cb3565b60405161022592919061158d565b60405180910390f35b610236610db9565b6040516102439190611194565b60405180910390f35b6060600380548060200260200160405190810160405280929190818152602001828054801561029a57602002820191906000526020600020905b815481526020019060010190808311610286575b5050505050905090565b600260009054906101000a900473ffffffffffffffffffffffffffffffffffffffff1673ffffffffffffffffffffffffffffffffffffffff163373ffffffffffffffffffffffffffffffffffffffff1614610334576040517f08c379a000000000000000000000000000000000000000000000000000000000815260040161032b9061162f565b60405180910390fd5b80600160006101000a81548173ffffffffffffffffffffffffffffffffffffffff021916908373ffffffffffffffffffffffffffffffffffffffff160217905550806000806101000a81548173ffffffffffffffffffffffffffffffffffffffff021916908373ffffffffffffffffffffffffffffffffffffffff16021790555050565b6000600360048111156103ce576103cd6112e4565b5b600a600084815260200190815260200160002060010160009054906101000a900460ff166004811115610404576104036112e4565b5b149050919050565b600160009054906101000a900473ffffffffffffffffffffffffffffffffffffffff1673ffffffffffffffffffffffffffffffffffffffff163373ffffffffffffffffffffffffffffffffffffffff161461049c576040517f08c379a0000000000000000000000000000000000000000000000000000000008152600401610493906116c1565b60405180910390fd5b6104a5816103b8565b6104e4576040517f08c379a00000000000000000000000000000000000000000000000000000000081526004016104db9061172d565b60405180910390fd5b6004600a600083815260200190815260200160002060010160006101000a81548160ff0219169083600481111561051e5761051d6112e4565b5b021790555061052c81610e11565b50565b60008054906101000a900473ffffffffffffffffffffffffffffffffffffffff1673ffffffffffffffffffffffffffffffffffffffff1663fa6f3936336040518263ffffffff1660e01b8152600401610588919061175c565b602060405180830381865afa1580156105a5573d6000803e3d6000fd5b505050506040513d601f19601f820116820180604052508101906105c991906117a3565b610608576040517f08c379a00000000000000000000000000000000000000000000000000000000081526004016105ff90611842565b60405180910390fd5b6002600481111561061c5761061b6112e4565b5b600a600083815260200190815260200160002060010160009054906101000a900460ff166004811115610652576106516112e4565b5b14610692576040517f08c379a0000000000000000000000000000000000000000000000000000000008152600401610689906118d4565b60405180910390fd5b6003600a600083815260200190815260200160002060010160006101000a81548160ff021916908360048111156106cc576106cb6112e4565b5b021790555050565b6000600a600083815260200190815260200160002060010160009054906101000a900460ff169050919050565b6060600960003373ffffffffffffffffffffffffffffffffffffffff1673ffffffffffffffffffffffffffffffffffffffff16815260200190815260200160002080548060200260200160405190810160405280929190818152602001828054801561078c57602002820191906000526020600020905b815481526020019060010190808311610778575b5050505050905090565b600081519050600081116107df576040517f08c379a00000000000000000000000000000000000000000000000000000000081526004016107d690611940565b60405180910390fd5b610118811115610824576040517f08c379a000000000000000000000000000000000000000000000000000000000815260040161081b906119ac565b60405180910390fd5b60086000815480929190610837906119fb565b91905055506000600854600061084d9190611a44565b9050600960003373ffffffffffffffffffffffffffffffffffffffff1673ffffffffffffffffffffffffffffffffffffffff1681526020019081526020016000208190806001815401808255809150506001900390600052602060002001600090919091909150556040518060400160405280848152602001600060048111156108da576108d96112e4565b5b815250600a6000838152602001908152602001600020600082015181600001908051906020019061090c929190611029565b5060208201518160010160006101000a81548160ff02191690836004811115610938576109376112e4565b5b021790555090505061094981610ed4565b505050565b60008054906101000a900473ffffffffffffffffffffffffffffffffffffffff1673ffffffffffffffffffffffffffffffffffffffff1663fa6f3936336040518263ffffffff1660e01b81526004016109a7919061175c565b602060405180830381865afa1580156109c4573d6000803e3d6000fd5b505050506040513d601f19601f820116820180604052508101906109e891906117a3565b610a27576040517f08c379a0000000000000000000000000000000000000000000000000000000008152600401610a1e90611842565b60405180910390fd5b60006004811115610a3b57610a3a6112e4565b5b600a600083815260200190815260200160002060010160009054906101000a900460ff166004811115610a7157610a706112e4565b5b14610ab1576040517f08c379a0000000000000000000000000000000000000000000000000000000008152600401610aa890611b0c565b60405180910390fd5b6002600a600083815260200190815260200160002060010160006101000a81548160ff02191690836004811115610aeb57610aea6112e4565b5b0217905550610af981610f1d565b610b0281610fe0565b50565b60008054906101000a900473ffffffffffffffffffffffffffffffffffffffff1673ffffffffffffffffffffffffffffffffffffffff1663fa6f3936336040518263ffffffff1660e01b8152600401610b5e919061175c565b602060405180830381865afa158015610b7b573d6000803e3d6000fd5b505050506040513d601f19601f82011682018060405250810190610b9f91906117a3565b610bde576040517f08c379a0000000000000000000000000000000000000000000000000000000008152600401610bd590611842565b60405180910390fd5b60006004811115610bf257610bf16112e4565b5b600a600083815260200190815260200160002060010160009054906101000a900460ff166004811115610c2857610c276112e4565b5b14610c68576040517f08c379a0000000000000000000000000000000000000000000000000000000008152600401610c5f90611b0c565b60405180910390fd5b6001600a600083815260200190815260200160002060010160006101000a81548160ff02191690836004811115610ca257610ca16112e4565b5b0217905550610cb081610f1d565b50565b6060600080600a6000858152602001908152602001600020604051806040016040529081600082018054610ce690611b5b565b80601f0160208091040260200160405190810160405280929190818152602001828054610d1290611b5b565b8015610d5f5780601f10610d3457610100808354040283529160200191610d5f565b820191906000526020600020905b815481529060010190602001808311610d4257829003601f168201915b505050505081526020016001820160009054906101000a900460ff166004811115610d8d57610d8c6112e4565b5b6004811115610d9f57610d9e6112e4565b5b815250509050806000015181602001519250925050915091565b60606005805480602002602001604051908101604052809291908181526020018280548015610e0757602002820191906000526020600020905b815481526020019060010190808311610df3575b5050505050905090565b60016003805490501115610ea957600060046000838152602001908152602001600020549050600060036001600380549050610e4d9190611b8d565b81548110610e5e57610e5d611bc1565b5b906000526020600020015490508060038381548110610e8057610e7f611bc1565b5b906000526020600020018190555081600460008381526020019081526020016000208190555050505b6003805480610ebb57610eba611bf0565b5b6001900381819060005260206000200160009055905550565b6005805490506006600083815260200190815260200160002081905550600581908060018154018082558091505060019003906000526020600020016000909190919091505550565b60016005805490501115610fb557600060066000838152602001908152602001600020549050600060056001600580549050610f599190611b8d565b81548110610f6a57610f69611bc1565b5b906000526020600020015490508060058381548110610f8c57610f8b611bc1565b5b906000526020600020018190555081600660008381526020019081526020016000208190555050505b6005805480610fc757610fc6611bf0565b5b6001900381819060005260206000200160009055905550565b6003805490506004600083815260200190815260200160002081905550600381908060018154018082558091505060019003906000526020600020016000909190919091505550565b82805461103590611b5b565b90600052602060002090601f016020900481019282611057576000855561109e565b82601f1061107057805160ff191683800117855561109e565b8280016001018555821561109e579182015b8281111561109d578251825591602001919060010190611082565b5b5090506110ab91906110af565b5090565b5b808211156110c85760008160009055506001016110b0565b5090565b600081519050919050565b600082825260208201905092915050565b6000819050602082019050919050565b6000819050919050565b61110b816110f8565b82525050565b600061111d8383611102565b60208301905092915050565b6000602082019050919050565b6000611141826110cc565b61114b81856110d7565b9350611156836110e8565b8060005b8381101561118757815161116e8882611111565b975061117983611129565b92505060018101905061115a565b5085935050505092915050565b600060208201905081810360008301526111ae8184611136565b905092915050565b6000604051905090565b600080fd5b600080fd5b600073ffffffffffffffffffffffffffffffffffffffff82169050919050565b60006111f5826111ca565b9050919050565b611205816111ea565b811461121057600080fd5b50565b600081359050611222816111fc565b92915050565b60006020828403121561123e5761123d6111c0565b5b600061124c84828501611213565b91505092915050565b61125e816110f8565b811461126957600080fd5b50565b60008135905061127b81611255565b92915050565b600060208284031215611297576112966111c0565b5b60006112a58482850161126c565b91505092915050565b60008115159050919050565b6112c3816112ae565b82525050565b60006020820190506112de60008301846112ba565b92915050565b7f4e487b7100000000000000000000000000000000000000000000000000000000600052602160045260246000fd5b60058110611324576113236112e4565b5b50565b600081905061133582611313565b919050565b600061134582611327565b9050919050565b6113558161133a565b82525050565b6000602082019050611370600083018461134c565b92915050565b600080fd5b600080fd5b6000601f19601f8301169050919050565b7f4e487b7100000000000000000000000000000000000000000000000000000000600052604160045260246000fd5b6113c982611380565b810181811067ffffffffffffffff821117156113e8576113e7611391565b5b80604052505050565b60006113fb6111b6565b905061140782826113c0565b919050565b600067ffffffffffffffff82111561142757611426611391565b5b61143082611380565b9050602081019050919050565b82818337600083830152505050565b600061145f61145a8461140c565b6113f1565b90508281526020810184848401111561147b5761147a61137b565b5b61148684828561143d565b509392505050565b600082601f8301126114a3576114a2611376565b5b81356114b384826020860161144c565b91505092915050565b6000602082840312156114d2576114d16111c0565b5b600082013567ffffffffffffffff8111156114f0576114ef6111c5565b5b6114fc8482850161148e565b91505092915050565b600081519050919050565b600082825260208201905092915050565b60005b8381101561153f578082015181840152602081019050611524565b8381111561154e576000848401525b50505050565b600061155f82611505565b6115698185611510565b9350611579818560208601611521565b61158281611380565b840191505092915050565b600060408201905081810360008301526115a78185611554565b90506115b6602083018461134c565b9392505050565b7f54727574684f776e61626c653a2063616e206f6e6c792062652063616c6c656460008201527f206279204f776e65720000000000000000000000000000000000000000000000602082015250565b6000611619602983611510565b9150611624826115bd565b604082019050919050565b600060208201905081810360008301526116488161160c565b9050919050565b7f54727574684f776e61626c653a2063616e206f6e6c792062652063616c6c656460008201527f2062792054727574680000000000000000000000000000000000000000000000602082015250565b60006116ab602983611510565b91506116b68261164f565b604082019050919050565b600060208201905081810360008301526116da8161169e565b9050919050565b7f417267756d656e7420537461747573206d757374206265204465626174696e67600082015250565b6000611717602083611510565b9150611722826116e1565b602082019050919050565b600060208201905081810360008301526117468161170a565b9050919050565b611756816111ea565b82525050565b6000602082019050611771600083018461174d565b92915050565b611780816112ae565b811461178b57600080fd5b50565b60008151905061179d81611777565b92915050565b6000602082840312156117b9576117b86111c0565b5b60006117c78482850161178e565b91505092915050565b7f54727574684f776e61626c653a2063616e206f6e6c792062652063616c6c656460008201527f2062792061204d6f64657261746f720000000000000000000000000000000000602082015250565b600061182c602f83611510565b9150611837826117d0565b604082019050919050565b6000602082019050818103600083015261185b8161181f565b9050919050565b7f417267756d656e7420537461747573206d75737420626520696e20426574746960008201527f6e67000000000000000000000000000000000000000000000000000000000000602082015250565b60006118be602283611510565b91506118c982611862565b604082019050919050565b600060208201905081810360008301526118ed816118b1565b9050919050565b7f417267756d656e74206d75737420657869737400000000000000000000000000600082015250565b600061192a601383611510565b9150611935826118f4565b602082019050919050565b600060208201905081810360008301526119598161191d565b9050919050565b7f417267756d656e7420697320746f6f206c6f6e67000000000000000000000000600082015250565b6000611996601483611510565b91506119a182611960565b602082019050919050565b600060208201905081810360008301526119c581611989565b9050919050565b7f4e487b7100000000000000000000000000000000000000000000000000000000600052601160045260246000fd5b6000611a06826110f8565b91507fffffffffffffffffffffffffffffffffffffffffffffffffffffffffffffffff821415611a3957611a386119cc565b5b600182019050919050565b6000611a4f826110f8565b9150611a5a836110f8565b9250827fffffffffffffffffffffffffffffffffffffffffffffffffffffffffffffffff03821115611a8f57611a8e6119cc565b5b828201905092915050565b7f417267756d656e7420537461747573206d75737420626520696e204e6565647360008201527f2052657669657700000000000000000000000000000000000000000000000000602082015250565b6000611af6602783611510565b9150611b0182611a9a565b604082019050919050565b60006020820190508181036000830152611b2581611ae9565b9050919050565b7f4e487b7100000000000000000000000000000000000000000000000000000000600052602260045260246000fd5b60006002820490506001821680611b7357607f821691505b60208210811415611b8757611b86611b2c565b5b50919050565b6000611b98826110f8565b9150611ba3836110f8565b925082821015611bb657611bb56119cc565b5b828203905092915050565b7f4e487b7100000000000000000000000000000000000000000000000000000000600052603260045260246000fd5b7f4e487b7100000000000000000000000000000000000000000000000000000000600052603160045260246000fdfea264697066735822122021fb8266511518970cc2e269386a4b499511751feba18cabcf6a3cb14d5a1f6d64736f6c634300080a0033",
  "immutableReferences": {},
  "source": "// SPDX-License-Identifier: MIT\npragma solidity >=0.4.22 <0.9.0;\n\nimport \"./Truth.sol\";\nimport \"./TruthOwnable.sol\";\nimport \"./Reviewable.sol\";\n\ncontract Arguments is TruthOwnable, Reviewable  {\n  struct Argument {\n    string text;\n    Status status;\n  }\n  // CAUTION! DUPLICATED CODE!\n  // IF YOU CHANGE THESE CONSTANTS, ALSO CHANGE\n  // ARGUMENT_STATUSES and MAX_SUBMISSION_LENGTH IN client/src/Constants.js\n  enum Status{ NEEDS_REVIEW, REJECTED, BETTING, DEBATING, FINISHED }\n  Status constant defaultStatus = Status.NEEDS_REVIEW;\n  uint constant maxArgumentLength = 280;\n\n  uint[] allArguments;\n  uint numArguments;\n  \n  mapping (address => uint[]) byDebaterAddress;\n\n  mapping (uint => Argument) arguments;\n\n  constructor() {\n    numArguments = 0;\n  }\n\n  function create(string memory text) public {\n    uint textLength = bytes(text).length;\n    require(textLength > 0, \"Argument must exist\");\n    require(textLength <= maxArgumentLength, \"Argument is too long\");\n    numArguments ++;\n    uint argumentId = 0 + numArguments;\n    byDebaterAddress[msg.sender].push(argumentId);\n    arguments[argumentId] = Argument(text, defaultStatus);\n    addToRequiringReview(argumentId);\n  }\n\n  function active() public view returns(uint[] memory) {\n    return activeItems;\n  }\n\n  function requiringReview() public view returns(uint[] memory) {\n    return requiringReviewItems;\n  }\n\n  function mine() public view returns(uint[] memory) {\n    return byDebaterAddress[msg.sender];\n  }\n\n  function getDetails(uint argumentId) public view returns (string memory, Status) {\n    Argument memory argument = arguments[argumentId];\n    return (argument.text, argument.status);\n  }\n\n  function getStatus(uint argumentId) public view returns (Status) {\n    return arguments[argumentId].status;\n  }\n  \n  function isDebating(uint argumentId) public view returns (bool) {\n    return arguments[argumentId].status == Status.DEBATING;\n  }\n\n  function approve(uint argumentId) public onlyModerator {\n    require(arguments[argumentId].status == Status.NEEDS_REVIEW, \"Argument Status must be in Needs Review\");\n    arguments[argumentId].status = Status.BETTING;\n    removeFromRequiringReview(argumentId);\n    addToActive(argumentId);\n  }\n\n  function startDebating(uint argumentId) public onlyModerator {\n    require(arguments[argumentId].status == Status.BETTING, \"Argument Status must be in Betting\");\n    arguments[argumentId].status = Status.DEBATING;\n  }\n\n  function reject(uint argumentId) public onlyModerator {\n    require(arguments[argumentId].status == Status.NEEDS_REVIEW, \"Argument Status must be in Needs Review\");\n    arguments[argumentId].status = Status.REJECTED;\n    removeFromRequiringReview(argumentId);\n  }\n\n  function endDebating(uint argumentId) public onlyTruth {\n    require(isDebating(argumentId), \"Argument Status must be Debating\");\n    arguments[argumentId].status = Status.FINISHED;\n    removeFromActive(argumentId);\n  }\n}\n",
  "sourcePath": "/Users/jbk/socratiq/contracts/Arguments.sol",
  "compiler": {
    "name": "solc",
    "version": "0.8.10+commit.fc410830.Emscripten.clang"
  },
  "schemaVersion": "3.4.7",
  "updatedAt": "2022-06-20T14:48:01.812Z",
  "devdoc": {
    "kind": "dev",
    "methods": {},
    "version": 1
  },
  "userdoc": {
    "kind": "user",
    "methods": {},
    "version": 1
  }
}