{
  "contractName": "Facts",
  "abi": [
    {
      "inputs": [],
      "stateMutability": "nonpayable",
      "type": "constructor"
    },
    {
      "inputs": [
        {
          "internalType": "address",
          "name": "_truthAddress",
          "type": "address"
        }
      ],
      "name": "setTruthAddress",
      "outputs": [],
      "stateMutability": "nonpayable",
      "type": "function"
    },
    {
      "inputs": [
        {
          "internalType": "uint256",
          "name": "argId",
          "type": "uint256"
        },
        {
          "internalType": "string",
          "name": "text",
          "type": "string"
        },
        {
          "internalType": "bool",
          "name": "inSupport",
          "type": "bool"
        }
      ],
      "name": "create",
      "outputs": [],
      "stateMutability": "nonpayable",
      "type": "function"
    },
    {
      "inputs": [
        {
          "internalType": "uint256",
          "name": "argId",
          "type": "uint256"
        }
      ],
      "name": "forArgument",
      "outputs": [
        {
          "internalType": "uint256[]",
          "name": "",
          "type": "uint256[]"
        }
      ],
      "stateMutability": "view",
      "type": "function"
    },
    {
      "inputs": [
        {
          "internalType": "uint256",
          "name": "argId",
          "type": "uint256"
        }
      ],
      "name": "truthEarned",
      "outputs": [
        {
          "components": [
            {
              "internalType": "address",
              "name": "voter",
              "type": "address"
            },
            {
              "internalType": "uint256",
              "name": "points",
              "type": "uint256"
            }
          ],
          "internalType": "struct TruthEarned[]",
          "name": "",
          "type": "tuple[]"
        }
      ],
      "stateMutability": "view",
      "type": "function"
    },
    {
      "inputs": [
        {
          "internalType": "uint256",
          "name": "factId",
          "type": "uint256"
        }
      ],
      "name": "isSupporting",
      "outputs": [
        {
          "internalType": "bool",
          "name": "",
          "type": "bool"
        }
      ],
      "stateMutability": "view",
      "type": "function"
    },
    {
      "inputs": [
        {
          "internalType": "uint256",
          "name": "factId",
          "type": "uint256"
        }
      ],
      "name": "argumentIdFor",
      "outputs": [
        {
          "internalType": "uint256",
          "name": "",
          "type": "uint256"
        }
      ],
      "stateMutability": "view",
      "type": "function"
    },
    {
      "inputs": [],
      "name": "mine",
      "outputs": [
        {
          "internalType": "uint256[]",
          "name": "",
          "type": "uint256[]"
        }
      ],
      "stateMutability": "view",
      "type": "function"
    },
    {
      "inputs": [
        {
          "internalType": "uint256",
          "name": "factId",
          "type": "uint256"
        }
      ],
      "name": "getDetails",
      "outputs": [
        {
          "internalType": "string",
          "name": "",
          "type": "string"
        },
        {
          "internalType": "bool",
          "name": "",
          "type": "bool"
        },
        {
          "internalType": "uint256",
          "name": "",
          "type": "uint256"
        }
      ],
      "stateMutability": "view",
      "type": "function"
    },
    {
      "inputs": [
        {
          "internalType": "uint256",
          "name": "factId",
          "type": "uint256"
        }
      ],
      "name": "alreadyVotedFor",
      "outputs": [
        {
          "internalType": "bool",
          "name": "",
          "type": "bool"
        }
      ],
      "stateMutability": "view",
      "type": "function"
    },
    {
      "inputs": [
        {
          "internalType": "uint256",
          "name": "factId",
          "type": "uint256"
        },
        {
          "internalType": "address",
          "name": "debater",
          "type": "address"
        }
      ],
      "name": "commitTruthTo",
      "outputs": [],
      "stateMutability": "nonpayable",
      "type": "function"
    },
    {
      "inputs": [
        {
          "internalType": "uint256",
          "name": "argId",
          "type": "uint256"
        }
      ],
      "name": "score",
      "outputs": [
        {
          "internalType": "uint256[]",
          "name": "",
          "type": "uint256[]"
        }
      ],
      "stateMutability": "nonpayable",
      "type": "function"
    }
  ],
  "bytecode": "0x608060405234801561001057600080fd5b5033600260006101000a81548173ffffffffffffffffffffffffffffffffffffffff021916908373ffffffffffffffffffffffffffffffffffffffff1602179055506000600381905550611977806100696000396000f3fe608060405234801561001057600080fd5b50600436106100a95760003560e01c80638b3704d9116100715780638b3704d9146101765780639236eea41461019257806399f4b251146101c2578063b093dd2b146101e0578063b93a89f714610210578063d1730f1f14610242576100a9565b806304b6c578146100ae57806315669744146100de578063536c4029146100fa5780636ae2c4a91461011657806371d5df4214610146575b600080fd5b6100c860048036038101906100c39190611017565b610272565b6040516100d5919061105f565b60405180910390f35b6100f860048036038101906100f391906110d8565b61029f565b005b610114600480360381019061010f9190611277565b6103b3565b005b610130600480360381019061012b9190611017565b6104f8565b60405161013d919061105f565b60405180910390f35b610160600480360381019061015b9190611017565b610635565b60405161016d91906112f5565b60405180910390f35b610190600480360381019061018b9190611310565b610655565b005b6101ac60048036038101906101a79190611017565b610860565b6040516101b9919061144c565b60405180910390f35b6101ca610932565b6040516101d7919061151d565b60405180910390f35b6101fa60048036038101906101f59190611017565b6109c7565b604051610207919061151d565b60405180910390f35b61022a60048036038101906102259190611017565b610a32565b604051610239939291906115c7565b60405180910390f35b61025c60048036038101906102579190611017565b610b21565b604051610269919061151d565b60405180910390f35b60006007600083815260200190815260200160002060020160009054906101000a900460ff169050919050565b600260009054906101000a900473ffffffffffffffffffffffffffffffffffffffff1673ffffffffffffffffffffffffffffffffffffffff163373ffffffffffffffffffffffffffffffffffffffff161461032f576040517f08c379a000000000000000000000000000000000000000000000000000000000815260040161032690611677565b60405180910390fd5b80600160006101000a81548173ffffffffffffffffffffffffffffffffffffffff021916908373ffffffffffffffffffffffffffffffffffffffff160217905550806000806101000a81548173ffffffffffffffffffffffffffffffffffffffff021916908373ffffffffffffffffffffffffffffffffffffffff16021790555050565b600360008154809291906103c6906116c6565b9190505550600060035460006103dc919061170f565b905082600760008381526020019081526020016000206001019080519060200190610408929190610f2a565b50816007600083815260200190815260200160002060020160006101000a81548160ff02191690831515021790555083600760008381526020019081526020016000206000018190555060056000858152602001908152602001600020819080600181540180825580915050600190039060005260206000200160009091909190915055600660003373ffffffffffffffffffffffffffffffffffffffff1673ffffffffffffffffffffffffffffffffffffffff16815260200190815260200160002081908060018154018082558091505060019003906000526020600020016000909190919091505550505050565b600080600560006007600086815260200190815260200160002060000154815260200190815260200160002080548060200260200160405190810160405280929190818152602001828054801561056e57602002820191906000526020600020905b81548152602001906001019080831161055a575b505050505090506000815190506000805b82811015610629578115801561060c5750600760008583815181106105a7576105a6611765565b5b6020026020010151815260200190815260200160002060050160003373ffffffffffffffffffffffffffffffffffffffff1673ffffffffffffffffffffffffffffffffffffffff16815260200190815260200160002060009054906101000a900460ff165b1561061657600191505b8080610621906116c6565b91505061057f565b50809350505050919050565b600060076000838152602001908152602001600020600001549050919050565b600160009054906101000a900473ffffffffffffffffffffffffffffffffffffffff1673ffffffffffffffffffffffffffffffffffffffff163373ffffffffffffffffffffffffffffffffffffffff16146106e5576040517f08c379a00000000000000000000000000000000000000000000000000000000081526004016106dc90611806565b60405180910390fd5b600660008273ffffffffffffffffffffffffffffffffffffffff1673ffffffffffffffffffffffffffffffffffffffff16815260200190815260200160002082908060018154018082558091505060019003906000526020600020016000909190919091505560016007600084815260200190815260200160002060050160008373ffffffffffffffffffffffffffffffffffffffff1673ffffffffffffffffffffffffffffffffffffffff16815260200190815260200160002060006101000a81548160ff02191690831515021790555060076000838152602001908152602001600020600401819080600181540180825580915050600190039060005260206000200160009091909190916101000a81548173ffffffffffffffffffffffffffffffffffffffff021916908373ffffffffffffffffffffffffffffffffffffffff1602179055506001600760008481526020019081526020016000206003016000828254610855919061170f565b925050819055505050565b606060046000838152602001908152602001600020805480602002602001604051908101604052809291908181526020016000905b8282101561092757838290600052602060002090600202016040518060400160405290816000820160009054906101000a900473ffffffffffffffffffffffffffffffffffffffff1673ffffffffffffffffffffffffffffffffffffffff1673ffffffffffffffffffffffffffffffffffffffff16815260200160018201548152505081526020019060010190610895565b505050509050919050565b6060600660003373ffffffffffffffffffffffffffffffffffffffff1673ffffffffffffffffffffffffffffffffffffffff1681526020019081526020016000208054806020026020016040519081016040528092919081815260200182805480156109bd57602002820191906000526020600020905b8154815260200190600101908083116109a9575b5050505050905090565b606060056000838152602001908152602001600020805480602002602001604051908101604052809291908181526020018280548015610a2657602002820191906000526020600020905b815481526020019060010190808311610a12575b50505050509050919050565b6060600080600760008581526020019081526020016000206001016007600086815260200190815260200160002060020160009054906101000a900460ff166007600087815260200190815260200160002060030154828054610a9490611855565b80601f0160208091040260200160405190810160405280929190818152602001828054610ac090611855565b8015610b0d5780601f10610ae257610100808354040283529160200191610b0d565b820191906000526020600020905b815481529060010190602001808311610af057829003601f168201915b505050505092509250925092509193909250565b6060600160009054906101000a900473ffffffffffffffffffffffffffffffffffffffff1673ffffffffffffffffffffffffffffffffffffffff163373ffffffffffffffffffffffffffffffffffffffff1614610bb3576040517f08c379a0000000000000000000000000000000000000000000000000000000008152600401610baa90611806565b60405180910390fd5b6000600560008481526020019081526020016000208054905090506000808267ffffffffffffffff811115610beb57610bea611120565b5b604051908082528060200260200182016040528015610c195781602001602082028036833780820191505090505b50905060005b83811015610cb9576000600560008881526020019081526020016000208281548110610c4e57610c4d611765565b5b906000526020600020015490506000600760008381526020019081526020016000206003015490508085610c82919061170f565b945080848481518110610c9857610c97611765565b5b60200260200101818152505050508080610cb1906116c6565b915050610c1f565b5060005b83811015610f1e57826064838381518110610cdb57610cda611765565b5b6020026020010151610ced9190611887565b610cf79190611910565b828281518110610d0a57610d09611765565b5b6020026020010181815250506000600560008881526020019081526020016000208281548110610d3d57610d3c611765565b5b90600052602060002001549050600060076000838152602001908152602001600020600401805480602002602001604051908101604052809291908181526020018280548015610de257602002820191906000526020600020905b8160009054906101000a900473ffffffffffffffffffffffffffffffffffffffff1673ffffffffffffffffffffffffffffffffffffffff1681526020019060010190808311610d98575b5050505050905060008151905060005b81811015610f0757600460008b81526020019081526020016000206040518060400160405280858481518110610e2b57610e2a611765565b5b602002602001015173ffffffffffffffffffffffffffffffffffffffff168152602001888881518110610e6157610e60611765565b5b60200260200101516064610e75919061170f565b815250908060018154018082558091505060019003906000526020600020906002020160009091909190915060008201518160000160006101000a81548173ffffffffffffffffffffffffffffffffffffffff021916908373ffffffffffffffffffffffffffffffffffffffff1602179055506020820151816001015550508080610eff906116c6565b915050610df2565b505050508080610f16906116c6565b915050610cbd565b50809350505050919050565b828054610f3690611855565b90600052602060002090601f016020900481019282610f585760008555610f9f565b82601f10610f7157805160ff1916838001178555610f9f565b82800160010185558215610f9f579182015b82811115610f9e578251825591602001919060010190610f83565b5b509050610fac9190610fb0565b5090565b5b80821115610fc9576000816000905550600101610fb1565b5090565b6000604051905090565b600080fd5b600080fd5b6000819050919050565b610ff481610fe1565b8114610fff57600080fd5b50565b60008135905061101181610feb565b92915050565b60006020828403121561102d5761102c610fd7565b5b600061103b84828501611002565b91505092915050565b60008115159050919050565b61105981611044565b82525050565b60006020820190506110746000830184611050565b92915050565b600073ffffffffffffffffffffffffffffffffffffffff82169050919050565b60006110a58261107a565b9050919050565b6110b58161109a565b81146110c057600080fd5b50565b6000813590506110d2816110ac565b92915050565b6000602082840312156110ee576110ed610fd7565b5b60006110fc848285016110c3565b91505092915050565b600080fd5b600080fd5b6000601f19601f8301169050919050565b7f4e487b7100000000000000000000000000000000000000000000000000000000600052604160045260246000fd5b6111588261110f565b810181811067ffffffffffffffff8211171561117757611176611120565b5b80604052505050565b600061118a610fcd565b9050611196828261114f565b919050565b600067ffffffffffffffff8211156111b6576111b5611120565b5b6111bf8261110f565b9050602081019050919050565b82818337600083830152505050565b60006111ee6111e98461119b565b611180565b90508281526020810184848401111561120a5761120961110a565b5b6112158482856111cc565b509392505050565b600082601f83011261123257611231611105565b5b81356112428482602086016111db565b91505092915050565b61125481611044565b811461125f57600080fd5b50565b6000813590506112718161124b565b92915050565b6000806000606084860312156112905761128f610fd7565b5b600061129e86828701611002565b935050602084013567ffffffffffffffff8111156112bf576112be610fdc565b5b6112cb8682870161121d565b92505060406112dc86828701611262565b9150509250925092565b6112ef81610fe1565b82525050565b600060208201905061130a60008301846112e6565b92915050565b6000806040838503121561132757611326610fd7565b5b600061133585828601611002565b9250506020611346858286016110c3565b9150509250929050565b600081519050919050565b600082825260208201905092915050565b6000819050602082019050919050565b6113858161109a565b82525050565b61139481610fe1565b82525050565b6040820160008201516113b0600085018261137c565b5060208201516113c3602085018261138b565b50505050565b60006113d5838361139a565b60408301905092915050565b6000602082019050919050565b60006113f982611350565b611403818561135b565b935061140e8361136c565b8060005b8381101561143f57815161142688826113c9565b9750611431836113e1565b925050600181019050611412565b5085935050505092915050565b6000602082019050818103600083015261146681846113ee565b905092915050565b600081519050919050565b600082825260208201905092915050565b6000819050602082019050919050565b60006114a6838361138b565b60208301905092915050565b6000602082019050919050565b60006114ca8261146e565b6114d48185611479565b93506114df8361148a565b8060005b838110156115105781516114f7888261149a565b9750611502836114b2565b9250506001810190506114e3565b5085935050505092915050565b6000602082019050818103600083015261153781846114bf565b905092915050565b600081519050919050565b600082825260208201905092915050565b60005b8381101561157957808201518184015260208101905061155e565b83811115611588576000848401525b50505050565b60006115998261153f565b6115a3818561154a565b93506115b381856020860161155b565b6115bc8161110f565b840191505092915050565b600060608201905081810360008301526115e1818661158e565b90506115f06020830185611050565b6115fd60408301846112e6565b949350505050565b7f54727574684f776e61626c653a2063616e206f6e6c792062652063616c6c656460008201527f206279204f776e65720000000000000000000000000000000000000000000000602082015250565b600061166160298361154a565b915061166c82611605565b604082019050919050565b6000602082019050818103600083015261169081611654565b9050919050565b7f4e487b7100000000000000000000000000000000000000000000000000000000600052601160045260246000fd5b60006116d182610fe1565b91507fffffffffffffffffffffffffffffffffffffffffffffffffffffffffffffffff82141561170457611703611697565b5b600182019050919050565b600061171a82610fe1565b915061172583610fe1565b9250827fffffffffffffffffffffffffffffffffffffffffffffffffffffffffffffffff0382111561175a57611759611697565b5b828201905092915050565b7f4e487b7100000000000000000000000000000000000000000000000000000000600052603260045260246000fd5b7f54727574684f776e61626c653a2063616e206f6e6c792062652063616c6c656460008201527f2062792054727574680000000000000000000000000000000000000000000000602082015250565b60006117f060298361154a565b91506117fb82611794565b604082019050919050565b6000602082019050818103600083015261181f816117e3565b9050919050565b7f4e487b7100000000000000000000000000000000000000000000000000000000600052602260045260246000fd5b6000600282049050600182168061186d57607f821691505b6020821081141561188157611880611826565b5b50919050565b600061189282610fe1565b915061189d83610fe1565b9250817fffffffffffffffffffffffffffffffffffffffffffffffffffffffffffffffff04831182151516156118d6576118d5611697565b5b828202905092915050565b7f4e487b7100000000000000000000000000000000000000000000000000000000600052601260045260246000fd5b600061191b82610fe1565b915061192683610fe1565b925082611936576119356118e1565b5b82820490509291505056fea2646970667358221220c1d3863d7b943431b9b5c15a94d6b0642d43d2c47fc9763878c76a2c770a0f7c64736f6c634300080a0033",
  "immutableReferences": {},
  "source": "// SPDX-License-Identifier: MIT\npragma solidity >=0.4.22 <0.9.0;\n\nimport \"./Truth.sol\";\nimport \"./TruthOwnable.sol\";\n\ncontract Facts is TruthOwnable {\n  struct Fact{\n    uint argumentId;\n    string text;\n    bool inSupport;\n    uint relevanceScore;\n    address[] voterAddresses;\n    mapping(address => bool) alreadyVoted;\n  }\n\n  uint numFacts;\n\n  constructor() {\n    numFacts = 0;\n  }\n\n  mapping (uint => TruthEarned[]) truthEarnedByArgId;\n\n  // Scopes\n  mapping (uint => uint[]) factsByArgId;\n  mapping (address => uint[]) factsByDebaterAddress;\n\n  mapping (uint => Fact) facts;\n  \n  function create(uint argId, string memory text, bool inSupport) public {\n    numFacts ++;\n    uint factId = 0 + numFacts;\n    facts[factId].text = text;\n    facts[factId].inSupport = inSupport;\n    facts[factId].argumentId = argId;\n    factsByArgId[argId].push(factId);\n    factsByDebaterAddress[msg.sender].push(factId);\n  }\n\n  function forArgument(uint argId) public view returns(uint[] memory) {\n    return factsByArgId[argId];\n  }\n\n  function truthEarned(uint argId) public view returns(TruthEarned[] memory) {\n    return truthEarnedByArgId[argId];\n  }\n\n  function isSupporting(uint factId) public view returns(bool) {\n    return facts[factId].inSupport;\n  }\n  \n  function argumentIdFor(uint factId) public view returns(uint) {\n    return facts[factId].argumentId;\n  }\n\n  function mine() public view returns(uint[] memory) {\n    return factsByDebaterAddress[msg.sender];\n  }\n\n  function getDetails(uint factId) public view returns(string memory, bool, uint) {\n    return (facts[factId].text, facts[factId].inSupport, facts[factId].relevanceScore); \n  }\n\n  function alreadyVotedFor(uint factId) public view returns (bool) {\n    uint[] memory siblingFacts = factsByArgId[facts[factId].argumentId];\n    uint numSiblings = siblingFacts.length;\n    bool _alreadyVoted = false;\n    for (uint i = 0; i < numSiblings; i++) {\n      if (!_alreadyVoted && facts[siblingFacts[i]].alreadyVoted[msg.sender]) {\n        _alreadyVoted = true;\n      }\n    }\n    return _alreadyVoted;\n  }\n\n  function commitTruthTo(uint factId, address debater) public onlyTruth {\n    factsByDebaterAddress[debater].push(factId);\n    facts[factId].alreadyVoted[debater] = true;\n    facts[factId].voterAddresses.push(debater);\n    facts[factId].relevanceScore += 1;\n  }\n\n  function score(uint argId) public onlyTruth returns (uint[] memory) {\n    uint numArgFacts = factsByArgId[argId].length;\n    uint totalScore = 0;\n    uint[] memory scores = new uint[](numArgFacts);\n    for (uint i = 0; i < numArgFacts; i++) {\n      uint factId = factsByArgId[argId][i];\n      uint scoreForFact = facts[factId].relevanceScore;\n      totalScore += scoreForFact;\n      scores[i] = scoreForFact;\n    }\n    for (uint j = 0; j < numArgFacts; j++) {\n      scores[j] = (scores[j] * 100) / totalScore;\n      uint factId = factsByArgId[argId][j];\n      address[] memory voters = facts[factId].voterAddresses;\n      uint numVoters = voters.length;\n      for (uint k = 0; k < numVoters; k++) {\n        truthEarnedByArgId[argId].push(TruthEarned(voters[k], 100 + scores[j]));\n      }\n    }\n    return scores;\n  }\n}\n",
  "sourcePath": "/Users/jbk/socratiq/contracts/Facts.sol",
  "compiler": {
    "name": "solc",
    "version": "0.8.10+commit.fc410830.Emscripten.clang"
  },
  "schemaVersion": "3.4.7",
  "updatedAt": "2022-06-20T14:48:01.826Z",
  "devdoc": {
    "kind": "dev",
    "methods": {},
    "version": 1
  },
  "userdoc": {
    "kind": "user",
    "methods": {},
    "version": 1
  }
}