{
  "contractName": "Sources",
  "abi": [
    {
      "inputs": [],
      "stateMutability": "nonpayable",
      "type": "constructor"
    },
    {
      "inputs": [
        {
          "internalType": "address",
          "name": "_truthAddress",
          "type": "address"
        }
      ],
      "name": "setTruthAddress",
      "outputs": [],
      "stateMutability": "nonpayable",
      "type": "function"
    },
    {
      "inputs": [
        {
          "internalType": "uint256",
          "name": "factId",
          "type": "uint256"
        },
        {
          "internalType": "string",
          "name": "_url",
          "type": "string"
        }
      ],
      "name": "create",
      "outputs": [],
      "stateMutability": "nonpayable",
      "type": "function"
    },
    {
      "inputs": [
        {
          "internalType": "uint256",
          "name": "factId",
          "type": "uint256"
        }
      ],
      "name": "forFact",
      "outputs": [
        {
          "internalType": "uint256[]",
          "name": "",
          "type": "uint256[]"
        }
      ],
      "stateMutability": "view",
      "type": "function"
    },
    {
      "inputs": [],
      "name": "mine",
      "outputs": [
        {
          "internalType": "uint256[]",
          "name": "",
          "type": "uint256[]"
        }
      ],
      "stateMutability": "view",
      "type": "function"
    },
    {
      "inputs": [
        {
          "internalType": "uint256",
          "name": "factId",
          "type": "uint256"
        }
      ],
      "name": "truthEarned",
      "outputs": [
        {
          "components": [
            {
              "internalType": "address",
              "name": "voter",
              "type": "address"
            },
            {
              "internalType": "uint256",
              "name": "points",
              "type": "uint256"
            }
          ],
          "internalType": "struct TruthEarned[]",
          "name": "",
          "type": "tuple[]"
        }
      ],
      "stateMutability": "view",
      "type": "function"
    },
    {
      "inputs": [
        {
          "internalType": "uint256",
          "name": "sourceId",
          "type": "uint256"
        }
      ],
      "name": "factIdFor",
      "outputs": [
        {
          "internalType": "uint256",
          "name": "",
          "type": "uint256"
        }
      ],
      "stateMutability": "view",
      "type": "function"
    },
    {
      "inputs": [
        {
          "internalType": "uint256",
          "name": "sourceId",
          "type": "uint256"
        }
      ],
      "name": "getDetails",
      "outputs": [
        {
          "internalType": "string",
          "name": "",
          "type": "string"
        },
        {
          "internalType": "uint256",
          "name": "",
          "type": "uint256"
        },
        {
          "internalType": "uint256",
          "name": "",
          "type": "uint256"
        }
      ],
      "stateMutability": "view",
      "type": "function"
    },
    {
      "inputs": [
        {
          "internalType": "uint256",
          "name": "sourceId",
          "type": "uint256"
        },
        {
          "internalType": "uint256",
          "name": "points",
          "type": "uint256"
        },
        {
          "internalType": "bool",
          "name": "inSupport",
          "type": "bool"
        },
        {
          "internalType": "address",
          "name": "debater",
          "type": "address"
        }
      ],
      "name": "commitTruthTo",
      "outputs": [],
      "stateMutability": "nonpayable",
      "type": "function"
    },
    {
      "inputs": [
        {
          "internalType": "uint256",
          "name": "factId",
          "type": "uint256"
        }
      ],
      "name": "score",
      "outputs": [
        {
          "internalType": "uint256",
          "name": "",
          "type": "uint256"
        }
      ],
      "stateMutability": "nonpayable",
      "type": "function"
    }
  ],
  "bytecode": "0x608060405234801561001057600080fd5b5033600260006101000a81548173ffffffffffffffffffffffffffffffffffffffff021916908373ffffffffffffffffffffffffffffffffffffffff1602179055506000600581905550611a01806100696000396000f3fe608060405234801561001057600080fd5b50600436106100935760003560e01c806399f4b2511161006657806399f4b2511461011c578063b93a89f71461013a578063cd5534cd1461016c578063d1730f1f1461019c578063e10257d9146101cc57610093565b80630118fa491461009857806315669744146100b45780639236eea4146100d0578063957e78e814610100575b600080fd5b6100b260048036038101906100ad91906111fd565b6101fc565b005b6100ce60048036038101906100c991906112b7565b61030c565b005b6100ea60048036038101906100e591906112e4565b610420565b6040516100f7919061140d565b60405180910390f35b61011a60048036038101906101159190611467565b6104f2565b005b6101246108b8565b604051610131919061157d565b60405180910390f35b610154600480360381019061014f91906112e4565b61094d565b60405161016393929190611636565b60405180910390f35b610186600480360381019061018191906112e4565b610a26565b6040516101939190611674565b60405180910390f35b6101b660048036038101906101b191906112e4565b610a43565b6040516101c39190611674565b60405180910390f35b6101e660048036038101906101e191906112e4565b610f5f565b6040516101f3919061157d565b60405180910390f35b6005600081548092919061020f906116be565b9190505550600060055460006102259190611707565b90508160066000858152602001908152602001600020908051906020019061024e929190610fca565b5082600760008381526020019081526020016000208190555060036000848152602001908152602001600020819080600181540180825580915050600190039060005260206000200160009091909190915055600460003373ffffffffffffffffffffffffffffffffffffffff1673ffffffffffffffffffffffffffffffffffffffff168152602001908152602001600020819080600181540180825580915050600190039060005260206000200160009091909190915055505050565b600260009054906101000a900473ffffffffffffffffffffffffffffffffffffffff1673ffffffffffffffffffffffffffffffffffffffff163373ffffffffffffffffffffffffffffffffffffffff161461039c576040517f08c379a0000000000000000000000000000000000000000000000000000000008152600401610393906117cf565b60405180910390fd5b80600160006101000a81548173ffffffffffffffffffffffffffffffffffffffff021916908373ffffffffffffffffffffffffffffffffffffffff160217905550806000806101000a81548173ffffffffffffffffffffffffffffffffffffffff021916908373ffffffffffffffffffffffffffffffffffffffff16021790555050565b6060600e6000838152602001908152602001600020805480602002602001604051908101604052809291908181526020016000905b828210156104e757838290600052602060002090600202016040518060400160405290816000820160009054906101000a900473ffffffffffffffffffffffffffffffffffffffff1673ffffffffffffffffffffffffffffffffffffffff1673ffffffffffffffffffffffffffffffffffffffff16815260200160018201548152505081526020019060010190610455565b505050509050919050565b600160009054906101000a900473ffffffffffffffffffffffffffffffffffffffff1673ffffffffffffffffffffffffffffffffffffffff163373ffffffffffffffffffffffffffffffffffffffff1614610582576040517f08c379a000000000000000000000000000000000000000000000000000000000815260040161057990611861565b60405180910390fd5b600460008273ffffffffffffffffffffffffffffffffffffffff1673ffffffffffffffffffffffffffffffffffffffff16815260200190815260200160002084908060018154018082558091505060019003906000526020600020016000909190919091505581156107525760006009600086815260200190815260200160002060008373ffffffffffffffffffffffffffffffffffffffff1673ffffffffffffffffffffffffffffffffffffffff1681526020019081526020016000205414156106bc57600a6000858152602001908152602001600020819080600181540180825580915050600190039060005260206000200160009091909190916101000a81548173ffffffffffffffffffffffffffffffffffffffff021916908373ffffffffffffffffffffffffffffffffffffffff1602179055505b826009600086815260200190815260200160002060008373ffffffffffffffffffffffffffffffffffffffff1673ffffffffffffffffffffffffffffffffffffffff168152602001908152602001600020600082825461071c9190611707565b92505081905550826008600086815260200190815260200160002060008282546107469190611707565b925050819055506108b2565b6000600c600086815260200190815260200160002060008373ffffffffffffffffffffffffffffffffffffffff1673ffffffffffffffffffffffffffffffffffffffff16815260200190815260200160002054141561082057600d6000858152602001908152602001600020819080600181540180825580915050600190039060005260206000200160009091909190916101000a81548173ffffffffffffffffffffffffffffffffffffffff021916908373ffffffffffffffffffffffffffffffffffffffff1602179055505b82600c600086815260200190815260200160002060008373ffffffffffffffffffffffffffffffffffffffff1673ffffffffffffffffffffffffffffffffffffffff16815260200190815260200160002060008282546108809190611707565b9250508190555082600b600086815260200190815260200160002060008282546108aa9190611707565b925050819055505b50505050565b6060600460003373ffffffffffffffffffffffffffffffffffffffff1673ffffffffffffffffffffffffffffffffffffffff16815260200190815260200160002080548060200260200160405190810160405280929190818152602001828054801561094357602002820191906000526020600020905b81548152602001906001019080831161092f575b5050505050905090565b6060600080600660008581526020019081526020016000206008600086815260200190815260200160002054600b600087815260200190815260200160002054828054610999906118b0565b80601f01602080910402602001604051908101604052809291908181526020018280546109c5906118b0565b8015610a125780601f106109e757610100808354040283529160200191610a12565b820191906000526020600020905b8154815290600101906020018083116109f557829003601f168201915b505050505092509250925092509193909250565b600060076000838152602001908152602001600020549050919050565b6000600160009054906101000a900473ffffffffffffffffffffffffffffffffffffffff1673ffffffffffffffffffffffffffffffffffffffff163373ffffffffffffffffffffffffffffffffffffffff1614610ad5576040517f08c379a0000000000000000000000000000000000000000000000000000000008152600401610acc90611861565b60405180910390fd5b6000610ae083610f5f565b90506000815190506000805b82811015610f53576000848281518110610b0957610b086118e2565b5b602002602001015190506000600860008381526020019081526020016000205490506000600b600084815260200190815260200160002054905060008060008385610b549190611707565b1415610b67576000915060009050610bb2565b8284610b739190611707565b606485610b809190611911565b610b8a919061199a565b91508284610b989190611707565b606484610ba59190611911565b610baf919061199a565b90505b605a8210610d7f578387610bc69190611707565b965060005b600a600087815260200190815260200160002080549050811015610d79576000600a60008881526020019081526020016000208281548110610c1057610c0f6118e2565b5b9060005260206000200160009054906101000a900473ffffffffffffffffffffffffffffffffffffffff16905060006009600089815260200190815260200160002060008373ffffffffffffffffffffffffffffffffffffffff1673ffffffffffffffffffffffffffffffffffffffff168152602001908152602001600020549050600e60008f815260200190815260200160002060405180604001604052808473ffffffffffffffffffffffffffffffffffffffff1681526020016064608285610cdb9190611911565b610ce5919061199a565b815250908060018154018082558091505060019003906000526020600020906002020160009091909190915060008201518160000160006101000a81548173ffffffffffffffffffffffffffffffffffffffff021916908373ffffffffffffffffffffffffffffffffffffffff16021790555060208201518160010155505050508080610d71906116be565b915050610bcb565b50610f3b565b60328110610f3a5760005b600d600087815260200190815260200160002080549050811015610f38576000600d60008881526020019081526020016000208281548110610dcf57610dce6118e2565b5b9060005260206000200160009054906101000a900473ffffffffffffffffffffffffffffffffffffffff1690506000600c600089815260200190815260200160002060008373ffffffffffffffffffffffffffffffffffffffff1673ffffffffffffffffffffffffffffffffffffffff168152602001908152602001600020549050600e60008f815260200190815260200160002060405180604001604052808473ffffffffffffffffffffffffffffffffffffffff1681526020016064608285610e9a9190611911565b610ea4919061199a565b815250908060018154018082558091505060019003906000526020600020906002020160009091909190915060008201518160000160006101000a81548173ffffffffffffffffffffffffffffffffffffffff021916908373ffffffffffffffffffffffffffffffffffffffff16021790555060208201518160010155505050508080610f30906116be565b915050610d8a565b505b5b50505050508080610f4b906116be565b915050610aec565b50809350505050919050565b606060036000838152602001908152602001600020805480602002602001604051908101604052809291908181526020018280548015610fbe57602002820191906000526020600020905b815481526020019060010190808311610faa575b50505050509050919050565b828054610fd6906118b0565b90600052602060002090601f016020900481019282610ff8576000855561103f565b82601f1061101157805160ff191683800117855561103f565b8280016001018555821561103f579182015b8281111561103e578251825591602001919060010190611023565b5b50905061104c9190611050565b5090565b5b80821115611069576000816000905550600101611051565b5090565b6000604051905090565b600080fd5b600080fd5b6000819050919050565b61109481611081565b811461109f57600080fd5b50565b6000813590506110b18161108b565b92915050565b600080fd5b600080fd5b6000601f19601f8301169050919050565b7f4e487b7100000000000000000000000000000000000000000000000000000000600052604160045260246000fd5b61110a826110c1565b810181811067ffffffffffffffff82111715611129576111286110d2565b5b80604052505050565b600061113c61106d565b90506111488282611101565b919050565b600067ffffffffffffffff821115611168576111676110d2565b5b611171826110c1565b9050602081019050919050565b82818337600083830152505050565b60006111a061119b8461114d565b611132565b9050828152602081018484840111156111bc576111bb6110bc565b5b6111c784828561117e565b509392505050565b600082601f8301126111e4576111e36110b7565b5b81356111f484826020860161118d565b91505092915050565b6000806040838503121561121457611213611077565b5b6000611222858286016110a2565b925050602083013567ffffffffffffffff8111156112435761124261107c565b5b61124f858286016111cf565b9150509250929050565b600073ffffffffffffffffffffffffffffffffffffffff82169050919050565b600061128482611259565b9050919050565b61129481611279565b811461129f57600080fd5b50565b6000813590506112b18161128b565b92915050565b6000602082840312156112cd576112cc611077565b5b60006112db848285016112a2565b91505092915050565b6000602082840312156112fa576112f9611077565b5b6000611308848285016110a2565b91505092915050565b600081519050919050565b600082825260208201905092915050565b6000819050602082019050919050565b61134681611279565b82525050565b61135581611081565b82525050565b604082016000820151611371600085018261133d565b506020820151611384602085018261134c565b50505050565b6000611396838361135b565b60408301905092915050565b6000602082019050919050565b60006113ba82611311565b6113c4818561131c565b93506113cf8361132d565b8060005b838110156114005781516113e7888261138a565b97506113f2836113a2565b9250506001810190506113d3565b5085935050505092915050565b6000602082019050818103600083015261142781846113af565b905092915050565b60008115159050919050565b6114448161142f565b811461144f57600080fd5b50565b6000813590506114618161143b565b92915050565b6000806000806080858703121561148157611480611077565b5b600061148f878288016110a2565b94505060206114a0878288016110a2565b93505060406114b187828801611452565b92505060606114c2878288016112a2565b91505092959194509250565b600081519050919050565b600082825260208201905092915050565b6000819050602082019050919050565b6000611506838361134c565b60208301905092915050565b6000602082019050919050565b600061152a826114ce565b61153481856114d9565b935061153f836114ea565b8060005b8381101561157057815161155788826114fa565b975061156283611512565b925050600181019050611543565b5085935050505092915050565b60006020820190508181036000830152611597818461151f565b905092915050565b600081519050919050565b600082825260208201905092915050565b60005b838110156115d95780820151818401526020810190506115be565b838111156115e8576000848401525b50505050565b60006115f98261159f565b61160381856115aa565b93506116138185602086016115bb565b61161c816110c1565b840191505092915050565b61163081611081565b82525050565b6000606082019050818103600083015261165081866115ee565b905061165f6020830185611627565b61166c6040830184611627565b949350505050565b60006020820190506116896000830184611627565b92915050565b7f4e487b7100000000000000000000000000000000000000000000000000000000600052601160045260246000fd5b60006116c982611081565b91507fffffffffffffffffffffffffffffffffffffffffffffffffffffffffffffffff8214156116fc576116fb61168f565b5b600182019050919050565b600061171282611081565b915061171d83611081565b9250827fffffffffffffffffffffffffffffffffffffffffffffffffffffffffffffffff038211156117525761175161168f565b5b828201905092915050565b7f54727574684f776e61626c653a2063616e206f6e6c792062652063616c6c656460008201527f206279204f776e65720000000000000000000000000000000000000000000000602082015250565b60006117b96029836115aa565b91506117c48261175d565b604082019050919050565b600060208201905081810360008301526117e8816117ac565b9050919050565b7f54727574684f776e61626c653a2063616e206f6e6c792062652063616c6c656460008201527f2062792054727574680000000000000000000000000000000000000000000000602082015250565b600061184b6029836115aa565b9150611856826117ef565b604082019050919050565b6000602082019050818103600083015261187a8161183e565b9050919050565b7f4e487b7100000000000000000000000000000000000000000000000000000000600052602260045260246000fd5b600060028204905060018216806118c857607f821691505b602082108114156118dc576118db611881565b5b50919050565b7f4e487b7100000000000000000000000000000000000000000000000000000000600052603260045260246000fd5b600061191c82611081565b915061192783611081565b9250817fffffffffffffffffffffffffffffffffffffffffffffffffffffffffffffffff04831182151516156119605761195f61168f565b5b828202905092915050565b7f4e487b7100000000000000000000000000000000000000000000000000000000600052601260045260246000fd5b60006119a582611081565b91506119b083611081565b9250826119c0576119bf61196b565b5b82820490509291505056fea26469706673582212200a7ee95f07375b7052d3b310062b0deb4086a77a1d1081a9fe67cb8f14799cce64736f6c634300080a0033",
  "immutableReferences": {},
  "source": "// SPDX-License-Identifier: MIT\npragma solidity >=0.4.22 <0.9.0;\n\nimport \"./Truth.sol\";\nimport \"./TruthOwnable.sol\";\n\ncontract Sources is TruthOwnable {\n  uint constant unquestionabilityThresholdPercent = 90;\n  uint constant biasedThresholdPercent = 50;\n  uint constant sourceIdentificationRewardPercent = 130;\n\n  mapping (uint => uint[]) byFactId;\n  mapping (address => uint[]) byDebaterAddress;\n\n  uint numSources;\n\n  mapping (uint => string) url;\n\n  mapping (uint => uint) sourceToFactId;\n\n  mapping (uint => uint) supportingTruth;\n  mapping (uint => mapping(address => uint)) supportingTruthByDebaterAddress;\n  mapping (uint => address[]) supporters;\n\n  mapping (uint => uint) opposingTruth;\n  mapping (uint => mapping(address => uint)) opposingTruthByDebaterAddress;\n  mapping (uint => address[]) opposers;\n\n  mapping (uint => TruthEarned[]) truthEarnedByFact;\n\n  constructor() {\n    numSources = 0;\n  }\n\n  function create(uint factId, string memory _url) public {\n    numSources ++;\n    uint sourceId = 0 + numSources;\n    url[factId] = _url;\n    sourceToFactId[sourceId] = factId;\n    byFactId[factId].push(sourceId);\n    byDebaterAddress[msg.sender].push(sourceId);\n  }\n\n  function forFact(uint factId) public view returns(uint[] memory) {\n    return byFactId[factId];\n  }\n\n  function mine() public view returns(uint[] memory) {\n    return byDebaterAddress[msg.sender];\n  }\n\n  function truthEarned(uint factId) public view returns(TruthEarned[] memory) {\n    return truthEarnedByFact[factId];\n  }\n  \n  function factIdFor(uint sourceId) public view returns(uint) {\n    return sourceToFactId[sourceId];\n  }\n\n  function getDetails(uint sourceId) public view returns(string memory, uint, uint) {\n    return (url[sourceId], supportingTruth[sourceId], opposingTruth[sourceId]); \n  }\n\n  function commitTruthTo(uint sourceId, uint points, bool inSupport, address debater) public onlyTruth {\n    byDebaterAddress[debater].push(sourceId);\n    if (inSupport) {\n      if (supportingTruthByDebaterAddress[sourceId][debater] == 0) supporters[sourceId].push(debater);\n      supportingTruthByDebaterAddress[sourceId][debater] += points;\n      supportingTruth[sourceId] += points;\n    } else {\n      if (opposingTruthByDebaterAddress[sourceId][debater] == 0) opposers[sourceId].push(debater);\n      opposingTruthByDebaterAddress[sourceId][debater] += points;\n      opposingTruth[sourceId] += points;\n    }\n  }\n\n  function score(uint factId) public onlyTruth returns (uint) {\n    uint[] memory factSources = forFact(factId);\n    uint numFactSources = factSources.length;\n    uint sourceScore = 0;\n    for (uint j = 0; j < numFactSources; j++) {\n      uint sourceId = factSources[j];\n      uint supporting = supportingTruth[sourceId];\n      uint opposing = opposingTruth[sourceId];\n      uint supportingPercent;\n      uint opposingPercent;\n      if (supporting + opposing == 0) {\n        supportingPercent = 0;\n        opposingPercent = 0;\n      } else {\n        supportingPercent = (supporting * 100) / (supporting + opposing);\n        opposingPercent = (opposing * 100) / (supporting + opposing);\n      }\n      if (supportingPercent >= unquestionabilityThresholdPercent) {\n        sourceScore += supporting;\n        for (uint k = 0; k < supporters[sourceId].length; k++) {\n          address supporter = supporters[sourceId][k];\n          uint committed = supportingTruthByDebaterAddress[sourceId][supporter];\n          truthEarnedByFact[factId].push(\n            TruthEarned(supporter, (committed * sourceIdentificationRewardPercent) / 100)\n          );\n        }\n      } else if (opposingPercent >= biasedThresholdPercent) {\n        for (uint k = 0; k < opposers[sourceId].length; k++) {\n          address opposer = opposers[sourceId][k];\n          uint committed = opposingTruthByDebaterAddress[sourceId][opposer];\n          truthEarnedByFact[factId].push(\n            TruthEarned(opposer, (committed * sourceIdentificationRewardPercent) / 100)\n          );\n        }\n      }\n    }\n    return sourceScore;\n  }\n}\n",
  "sourcePath": "/Users/jbk/socratiq/contracts/Sources.sol",
  "compiler": {
    "name": "solc",
    "version": "0.8.10+commit.fc410830.Emscripten.clang"
  },
  "schemaVersion": "3.4.7",
  "updatedAt": "2022-06-20T14:48:01.835Z",
  "devdoc": {
    "kind": "dev",
    "methods": {},
    "version": 1
  },
  "userdoc": {
    "kind": "user",
    "methods": {},
    "version": 1
  }
}