{
  "contractName": "Truth",
  "abi": [
    {
      "inputs": [
        {
          "internalType": "address",
          "name": "_argumentsAddress",
          "type": "address"
        },
        {
          "internalType": "address",
          "name": "_factsAddress",
          "type": "address"
        },
        {
          "internalType": "address",
          "name": "_sourcesAddress",
          "type": "address"
        }
      ],
      "stateMutability": "nonpayable",
      "type": "constructor"
    },
    {
      "inputs": [],
      "name": "getPoints",
      "outputs": [
        {
          "internalType": "uint256",
          "name": "",
          "type": "uint256"
        }
      ],
      "stateMutability": "view",
      "type": "function"
    },
    {
      "inputs": [
        {
          "internalType": "uint256",
          "name": "argumentId",
          "type": "uint256"
        }
      ],
      "name": "scoreArgument",
      "outputs": [],
      "stateMutability": "nonpayable",
      "type": "function"
    },
    {
      "inputs": [
        {
          "internalType": "uint256",
          "name": "factId",
          "type": "uint256"
        }
      ],
      "name": "commitToFact",
      "outputs": [
        {
          "internalType": "bool",
          "name": "",
          "type": "bool"
        }
      ],
      "stateMutability": "nonpayable",
      "type": "function"
    },
    {
      "inputs": [
        {
          "internalType": "uint256",
          "name": "sourceId",
          "type": "uint256"
        },
        {
          "internalType": "uint256",
          "name": "points",
          "type": "uint256"
        },
        {
          "internalType": "bool",
          "name": "inSupport",
          "type": "bool"
        }
      ],
      "name": "commitToSource",
      "outputs": [
        {
          "internalType": "bool",
          "name": "",
          "type": "bool"
        }
      ],
      "stateMutability": "nonpayable",
      "type": "function"
    },
    {
      "inputs": [],
      "name": "initAccount",
      "outputs": [
        {
          "internalType": "bool",
          "name": "isNew",
          "type": "bool"
        }
      ],
      "stateMutability": "nonpayable",
      "type": "function"
    },
    {
      "inputs": [
        {
          "internalType": "address",
          "name": "addr",
          "type": "address"
        }
      ],
      "name": "isModerator",
      "outputs": [
        {
          "internalType": "bool",
          "name": "",
          "type": "bool"
        }
      ],
      "stateMutability": "view",
      "type": "function"
    }
  ],
  "bytecode": "0x60806040523480156200001157600080fd5b506040516200198d3803806200198d833981810160405281019062000037919062000174565b6000808190555082600360006101000a81548173ffffffffffffffffffffffffffffffffffffffff021916908373ffffffffffffffffffffffffffffffffffffffff16021790555081600460006101000a81548173ffffffffffffffffffffffffffffffffffffffff021916908373ffffffffffffffffffffffffffffffffffffffff16021790555080600560006101000a81548173ffffffffffffffffffffffffffffffffffffffff021916908373ffffffffffffffffffffffffffffffffffffffff160217905550505050620001d0565b600080fd5b600073ffffffffffffffffffffffffffffffffffffffff82169050919050565b60006200013c826200010f565b9050919050565b6200014e816200012f565b81146200015a57600080fd5b50565b6000815190506200016e8162000143565b92915050565b60008060006060848603121562000190576200018f6200010a565b5b6000620001a0868287016200015d565b9350506020620001b3868287016200015d565b9250506040620001c6868287016200015d565b9150509250925092565b6117ad80620001e06000396000f3fe608060405234801561001057600080fd5b50600436106100625760003560e01c8063097d98ba146100675780631b61ab4f146100975780634ec1ce21146100c7578063aef8fcea146100e5578063f4b7095b14610101578063fa6f39361461011f575b600080fd5b610081600480360381019061007c9190610f65565b61014f565b60405161008e9190610fc7565b60405180910390f35b6100b160048036038101906100ac9190610fe2565b610403565b6040516100be9190610fc7565b60405180910390f35b6100cf610695565b6040516100dc9190610fc7565b60405180910390f35b6100ff60048036038101906100fa9190610fe2565b6107e6565b005b610109610cec565b604051610116919061101e565b60405180910390f35b61013960048036038101906101349190611097565b610d33565b6040516101469190610fc7565b60405180910390f35b600080600560009054906101000a900473ffffffffffffffffffffffffffffffffffffffff1690506000600460009054906101000a900473ffffffffffffffffffffffffffffffffffffffff1690506000600360009054906101000a900473ffffffffffffffffffffffffffffffffffffffff1690508073ffffffffffffffffffffffffffffffffffffffff166316b25b718373ffffffffffffffffffffffffffffffffffffffff166371d5df428673ffffffffffffffffffffffffffffffffffffffff1663cd5534cd8c6040518263ffffffff1660e01b8152600401610236919061101e565b602060405180830381865afa158015610253573d6000803e3d6000fd5b505050506040513d601f19601f8201168201806040525081019061027791906110d9565b6040518263ffffffff1660e01b8152600401610293919061101e565b602060405180830381865afa1580156102b0573d6000803e3d6000fd5b505050506040513d601f19601f820116820180604052508101906102d491906110d9565b6040518263ffffffff1660e01b81526004016102f0919061101e565b602060405180830381865afa15801561030d573d6000803e3d6000fd5b505050506040513d601f19601f82011682018060405250810190610331919061111b565b610370576040517f08c379a0000000000000000000000000000000000000000000000000000000008152600401610367906111a5565b60405180910390fd5b600061037b87610d8b565b905080156103f5578373ffffffffffffffffffffffffffffffffffffffff1663957e78e8898989336040518563ffffffff1660e01b81526004016103c294939291906111d4565b600060405180830381600087803b1580156103dc57600080fd5b505af11580156103f0573d6000803e3d6000fd5b505050505b809450505050509392505050565b600080600460009054906101000a900473ffffffffffffffffffffffffffffffffffffffff1690508073ffffffffffffffffffffffffffffffffffffffff16636ae2c4a9846040518263ffffffff1660e01b8152600401610464919061101e565b602060405180830381865afa158015610481573d6000803e3d6000fd5b505050506040513d601f19601f820116820180604052508101906104a5919061111b565b156104af57600080fd5b6000600360009054906101000a900473ffffffffffffffffffffffffffffffffffffffff1690508073ffffffffffffffffffffffffffffffffffffffff166316b25b718373ffffffffffffffffffffffffffffffffffffffff166371d5df42876040518263ffffffff1660e01b815260040161052b919061101e565b602060405180830381865afa158015610548573d6000803e3d6000fd5b505050506040513d601f19601f8201168201806040525081019061056c91906110d9565b6040518263ffffffff1660e01b8152600401610588919061101e565b602060405180830381865afa1580156105a5573d6000803e3d6000fd5b505050506040513d601f19601f820116820180604052508101906105c9919061111b565b610608576040517f08c379a00000000000000000000000000000000000000000000000000000000081526004016105ff906111a5565b60405180910390fd5b60006106146064610d8b565b9050801561068a578273ffffffffffffffffffffffffffffffffffffffff16638b3704d986336040518363ffffffff1660e01b8152600401610657929190611219565b600060405180830381600087803b15801561067157600080fd5b505af1158015610685573d6000803e3d6000fd5b505050505b809350505050919050565b600060011515600260003373ffffffffffffffffffffffffffffffffffffffff1673ffffffffffffffffffffffffffffffffffffffff16815260200190815260200160002060009054906101000a900460ff16151514156106f957600090506107e3565b6001600260003373ffffffffffffffffffffffffffffffffffffffff1673ffffffffffffffffffffffffffffffffffffffff16815260200190815260200160002060006101000a81548160ff02191690831515021790555060016000808282546107639190611271565b925050819055506000600860005410610789576064600361078491906112c7565b610797565b60648061079691906112c7565b5b905080600160003373ffffffffffffffffffffffffffffffffffffffff1673ffffffffffffffffffffffffffffffffffffffff1681526020019081526020016000208190555060019150505b90565b6107ef33610d33565b61082e576040517f08c379a000000000000000000000000000000000000000000000000000000000815260040161082590611393565b60405180910390fd5b6000600360009054906101000a900473ffffffffffffffffffffffffffffffffffffffff1690508073ffffffffffffffffffffffffffffffffffffffff166325c98fc6836040518263ffffffff1660e01b815260040161088e919061101e565b600060405180830381600087803b1580156108a857600080fd5b505af11580156108bc573d6000803e3d6000fd5b505050506000600460009054906101000a900473ffffffffffffffffffffffffffffffffffffffff1690506000600560009054906101000a900473ffffffffffffffffffffffffffffffffffffffff16905060008273ffffffffffffffffffffffffffffffffffffffff1663b093dd2b866040518263ffffffff1660e01b8152600401610949919061101e565b600060405180830381865afa158015610966573d6000803e3d6000fd5b505050506040513d6000823e3d601f19601f8201168201806040525081019061098f919061150c565b905060008373ffffffffffffffffffffffffffffffffffffffff1663d1730f1f876040518263ffffffff1660e01b81526004016109cc919061101e565b6000604051808303816000875af11580156109eb573d6000803e3d6000fd5b505050506040513d6000823e3d601f19601f82011682018060405250810190610a14919061150c565b9050610a9d8473ffffffffffffffffffffffffffffffffffffffff16639236eea4886040518263ffffffff1660e01b8152600401610a52919061101e565b600060405180830381865afa158015610a6f573d6000803e3d6000fd5b505050506040513d6000823e3d601f19601f82011682018060405250810190610a989190611682565b610e3c565b60008251905060008060005b83811015610ce0576000858281518110610ac657610ac56116cb565b5b60200260200101518873ffffffffffffffffffffffffffffffffffffffff1663d1730f1f898581518110610afd57610afc6116cb565b5b60200260200101516040518263ffffffff1660e01b8152600401610b21919061101e565b6020604051808303816000875af1158015610b40573d6000803e3d6000fd5b505050506040513d601f19601f82011682018060405250810190610b6491906110d9565b610b6e91906112c7565b9050610c118873ffffffffffffffffffffffffffffffffffffffff16639236eea4898581518110610ba257610ba16116cb565b5b60200260200101516040518263ffffffff1660e01b8152600401610bc6919061101e565b600060405180830381865afa158015610be3573d6000803e3d6000fd5b505050506040513d6000823e3d601f19601f82011682018060405250810190610c0c9190611682565b610e3c565b8873ffffffffffffffffffffffffffffffffffffffff166304b6c578888481518110610c4057610c3f6116cb565b5b60200260200101516040518263ffffffff1660e01b8152600401610c64919061101e565b602060405180830381865afa158015610c81573d6000803e3d6000fd5b505050506040513d601f19601f82011682018060405250810190610ca5919061111b565b15610cbd578084610cb69190611271565b9350610ccc565b8083610cc99190611271565b92505b508080610cd8906116fa565b915050610aa9565b50505050505050505050565b6000600160003373ffffffffffffffffffffffffffffffffffffffff1673ffffffffffffffffffffffffffffffffffffffff16815260200190815260200160002054905090565b60006064605f610d4391906112c7565b600160008473ffffffffffffffffffffffffffffffffffffffff1673ffffffffffffffffffffffffffffffffffffffff16815260200190815260200160002054119050919050565b600081600160003373ffffffffffffffffffffffffffffffffffffffff1673ffffffffffffffffffffffffffffffffffffffff1681526020019081526020016000205410610e325781600160003373ffffffffffffffffffffffffffffffffffffffff1673ffffffffffffffffffffffffffffffffffffffff1681526020019081526020016000206000828254610e229190611743565b9250508190555060019050610e37565b600090505b919050565b60008151905060005b81811015610ede576000838281518110610e6257610e616116cb565b5b60200260200101519050806020015160016000836000015173ffffffffffffffffffffffffffffffffffffffff1673ffffffffffffffffffffffffffffffffffffffff1681526020019081526020016000206000828254610ec39190611271565b92505081905550508080610ed6906116fa565b915050610e45565b505050565b6000604051905090565b600080fd5b600080fd5b6000819050919050565b610f0a81610ef7565b8114610f1557600080fd5b50565b600081359050610f2781610f01565b92915050565b60008115159050919050565b610f4281610f2d565b8114610f4d57600080fd5b50565b600081359050610f5f81610f39565b92915050565b600080600060608486031215610f7e57610f7d610eed565b5b6000610f8c86828701610f18565b9350506020610f9d86828701610f18565b9250506040610fae86828701610f50565b9150509250925092565b610fc181610f2d565b82525050565b6000602082019050610fdc6000830184610fb8565b92915050565b600060208284031215610ff857610ff7610eed565b5b600061100684828501610f18565b91505092915050565b61101881610ef7565b82525050565b6000602082019050611033600083018461100f565b92915050565b600073ffffffffffffffffffffffffffffffffffffffff82169050919050565b600061106482611039565b9050919050565b61107481611059565b811461107f57600080fd5b50565b6000813590506110918161106b565b92915050565b6000602082840312156110ad576110ac610eed565b5b60006110bb84828501611082565b91505092915050565b6000815190506110d381610f01565b92915050565b6000602082840312156110ef576110ee610eed565b5b60006110fd848285016110c4565b91505092915050565b60008151905061111581610f39565b92915050565b60006020828403121561113157611130610eed565b5b600061113f84828501611106565b91505092915050565b600082825260208201905092915050565b7f417267756d656e7420537461747573206d757374206265204465626174696e67600082015250565b600061118f602083611148565b915061119a82611159565b602082019050919050565b600060208201905081810360008301526111be81611182565b9050919050565b6111ce81611059565b82525050565b60006080820190506111e9600083018761100f565b6111f6602083018661100f565b6112036040830185610fb8565b61121060608301846111c5565b95945050505050565b600060408201905061122e600083018561100f565b61123b60208301846111c5565b9392505050565b7f4e487b7100000000000000000000000000000000000000000000000000000000600052601160045260246000fd5b600061127c82610ef7565b915061128783610ef7565b9250827fffffffffffffffffffffffffffffffffffffffffffffffffffffffffffffffff038211156112bc576112bb611242565b5b828201905092915050565b60006112d282610ef7565b91506112dd83610ef7565b9250817fffffffffffffffffffffffffffffffffffffffffffffffffffffffffffffffff048311821515161561131657611315611242565b5b828202905092915050565b7f43616e206f6e6c792062652063616c6c65642062792061204d6f64657261746f60008201527f7200000000000000000000000000000000000000000000000000000000000000602082015250565b600061137d602183611148565b915061138882611321565b604082019050919050565b600060208201905081810360008301526113ac81611370565b9050919050565b600080fd5b6000601f19601f8301169050919050565b7f4e487b7100000000000000000000000000000000000000000000000000000000600052604160045260246000fd5b611401826113b8565b810181811067ffffffffffffffff821117156114205761141f6113c9565b5b80604052505050565b6000611433610ee3565b905061143f82826113f8565b919050565b600067ffffffffffffffff82111561145f5761145e6113c9565b5b602082029050602081019050919050565b600080fd5b600061148861148384611444565b611429565b905080838252602082019050602084028301858111156114ab576114aa611470565b5b835b818110156114d457806114c088826110c4565b8452602084019350506020810190506114ad565b5050509392505050565b600082601f8301126114f3576114f26113b3565b5b8151611503848260208601611475565b91505092915050565b60006020828403121561152257611521610eed565b5b600082015167ffffffffffffffff8111156115405761153f610ef2565b5b61154c848285016114de565b91505092915050565b600067ffffffffffffffff8211156115705761156f6113c9565b5b602082029050602081019050919050565b600080fd5b6000815190506115958161106b565b92915050565b6000604082840312156115b1576115b0611581565b5b6115bb6040611429565b905060006115cb84828501611586565b60008301525060206115df848285016110c4565b60208301525092915050565b60006115fe6115f984611555565b611429565b9050808382526020820190506040840283018581111561162157611620611470565b5b835b8181101561164a5780611636888261159b565b845260208401935050604081019050611623565b5050509392505050565b600082601f830112611669576116686113b3565b5b81516116798482602086016115eb565b91505092915050565b60006020828403121561169857611697610eed565b5b600082015167ffffffffffffffff8111156116b6576116b5610ef2565b5b6116c284828501611654565b91505092915050565b7f4e487b7100000000000000000000000000000000000000000000000000000000600052603260045260246000fd5b600061170582610ef7565b91507fffffffffffffffffffffffffffffffffffffffffffffffffffffffffffffffff82141561173857611737611242565b5b600182019050919050565b600061174e82610ef7565b915061175983610ef7565b92508282101561176c5761176b611242565b5b82820390509291505056fea26469706673582212204192801fa1462eaacfb822aa9a4b001c7bd409860d4b5261b1284622232f888764736f6c634300080a0033",
  "immutableReferences": {},
  "source": "// SPDX-License-Identifier: MIT\npragma solidity >=0.4.22 <0.9.0;\n\nimport \"./Arguments.sol\";\nimport \"./Facts.sol\";\nimport \"./Sources.sol\";\n\nstruct TruthEarned {\n  address voter;\n  uint points;\n}\n\ncontract Truth {\n  uint constant baseUnits = 100;\n  uint constant initialAllocation = 3 * baseUnits;\n  uint constant numFirstModerators = 8;\n  uint constant firstModeratorsAllocation = 100 * baseUnits;\n  uint constant moderatorThreshold = 95 * baseUnits;\n\n  uint totalInitialized;\n\n  mapping (address => uint) scores;\n  mapping (address => bool) initialized;\n\n  address argumentsAddress;\n  address factsAddress;\n  address sourcesAddress;\n \n  constructor(address _argumentsAddress, address _factsAddress, address _sourcesAddress) {\n    totalInitialized = 0;\n    argumentsAddress = _argumentsAddress;\n    factsAddress = _factsAddress;\n    sourcesAddress = _sourcesAddress;\n  }\n\n  modifier onlyModerator() {\n    require(isModerator(msg.sender), \"Can only be called by a Moderator\");\n    _;\n  }\n\n  function getPoints() public view returns(uint) {\n    return scores[msg.sender];\n  }\n\n  function applyTruthEarned(TruthEarned[] memory truthEarned) private {\n    uint numTruthEarned = truthEarned.length;\n    for (uint i = 0; i < numTruthEarned; i++) {\n      TruthEarned memory earning = truthEarned[i];\n      scores[earning.voter] += earning.points;\n    }\n  }\n\n  function scoreArgument(uint argumentId) public onlyModerator {\n    Arguments arguments = Arguments(argumentsAddress);\n    arguments.endDebating(argumentId);\n    Facts facts = Facts(factsAddress);\n    Sources sources = Sources(sourcesAddress);\n    uint[] memory argumentFacts = facts.forArgument(argumentId);\n    uint[] memory relevanceScores = facts.score(argumentId);\n    applyTruthEarned(facts.truthEarned(argumentId));\n    uint numFacts = argumentFacts.length;\n    uint totalSupporting = 0;\n    uint totalOpposing = 0;\n    for (uint i = 0; i < numFacts; i++) {\n      uint factScore = sources.score(argumentFacts[i]) * relevanceScores[i];\n      applyTruthEarned(sources.truthEarned(argumentFacts[i]));\n      if (facts.isSupporting(argumentFacts[i])) {\n        totalSupporting += factScore;\n      } else {\n        totalOpposing += factScore;\n      }\n    }\n    // Allocate DebateCoin based on totalSupporting vs totalOpposing\n  }\n\n  function deplete(uint points) private returns(bool hasEnough) {\n    if (scores[msg.sender] >= points) {\n      scores[msg.sender] -= points;\n      return true;\n    } else {\n      return false;\n    }\n  }\n\n  function commitToFact(uint factId) public returns(bool) {\n    Facts facts = Facts(factsAddress);\n    require(!facts.alreadyVotedFor(factId));\n    Arguments arguments = Arguments(argumentsAddress);\n    require(arguments.isDebating(facts.argumentIdFor(factId)), \"Argument Status must be Debating\");\n    bool hasEnough = deplete(baseUnits);\n    if (hasEnough) facts.commitTruthTo(factId, msg.sender);\n    return hasEnough;\n  }\n\n  function commitToSource(uint sourceId, uint points, bool inSupport) public returns(bool) {\n    Sources sources = Sources(sourcesAddress);\n    Facts facts = Facts(factsAddress);\n    Arguments arguments = Arguments(argumentsAddress);\n    require(arguments.isDebating(facts.argumentIdFor(sources.factIdFor(sourceId))), \"Argument Status must be Debating\");\n    bool hasEnough = deplete(points);\n    if (hasEnough) sources.commitTruthTo(sourceId, points, inSupport, msg.sender);\n    return hasEnough;\n  }\n\n  function initAccount() public returns(bool isNew) {\n    if (initialized[msg.sender] == true) {\n      return false;\n    } else {\n      initialized[msg.sender] = true;\n      totalInitialized += 1;\n      uint allocation = totalInitialized < numFirstModerators ? firstModeratorsAllocation : initialAllocation;\n      scores[msg.sender] = allocation;\n      return true;\n    }\n  }\n\n  function isModerator(address addr) public view returns(bool) {\n    return scores[addr] > moderatorThreshold;\n  }\n}\n",
  "sourcePath": "/Users/jbk/socratiq/contracts/Truth.sol",
  "compiler": {
    "name": "solc",
    "version": "0.8.10+commit.fc410830.Emscripten.clang"
  },
  "schemaVersion": "3.4.7",
  "updatedAt": "2022-06-20T14:48:01.846Z",
  "devdoc": {
    "kind": "dev",
    "methods": {},
    "version": 1
  },
  "userdoc": {
    "kind": "user",
    "methods": {},
    "version": 1
  }
}