{
  "contractName": "Arguments",
  "abi": [
    {
      "inputs": [],
      "stateMutability": "nonpayable",
      "type": "constructor"
    },
    {
      "inputs": [
        {
          "internalType": "address",
          "name": "_truthAddress",
          "type": "address"
        }
      ],
      "name": "setTruthAddress",
      "outputs": [],
      "stateMutability": "nonpayable",
      "type": "function"
    },
    {
      "inputs": [
        {
          "internalType": "string",
          "name": "_text",
          "type": "string"
        }
      ],
      "name": "create",
      "outputs": [],
      "stateMutability": "nonpayable",
      "type": "function"
    },
    {
      "inputs": [],
      "name": "active",
      "outputs": [
        {
          "internalType": "uint256[]",
          "name": "",
          "type": "uint256[]"
        }
      ],
      "stateMutability": "view",
      "type": "function",
      "constant": true
    },
    {
      "inputs": [],
      "name": "requiringReview",
      "outputs": [
        {
          "internalType": "uint256[]",
          "name": "",
          "type": "uint256[]"
        }
      ],
      "stateMutability": "view",
      "type": "function",
      "constant": true
    },
    {
      "inputs": [],
      "name": "mine",
      "outputs": [
        {
          "internalType": "uint256[]",
          "name": "",
          "type": "uint256[]"
        }
      ],
      "stateMutability": "view",
      "type": "function",
      "constant": true
    },
    {
      "inputs": [
        {
          "internalType": "uint256",
          "name": "argumentId",
          "type": "uint256"
        }
      ],
      "name": "getStatus",
      "outputs": [
        {
          "internalType": "enum Arguments.Status",
          "name": "",
          "type": "uint8"
        }
      ],
      "stateMutability": "view",
      "type": "function",
      "constant": true
    },
    {
      "inputs": [
        {
          "internalType": "uint256",
          "name": "argumentId",
          "type": "uint256"
        }
      ],
      "name": "isDebating",
      "outputs": [
        {
          "internalType": "bool",
          "name": "",
          "type": "bool"
        }
      ],
      "stateMutability": "view",
      "type": "function",
      "constant": true
    },
    {
      "inputs": [
        {
          "internalType": "uint256",
          "name": "argumentId",
          "type": "uint256"
        }
      ],
      "name": "approve",
      "outputs": [],
      "stateMutability": "nonpayable",
      "type": "function"
    },
    {
      "inputs": [
        {
          "internalType": "uint256",
          "name": "argumentId",
          "type": "uint256"
        }
      ],
      "name": "startDebating",
      "outputs": [],
      "stateMutability": "nonpayable",
      "type": "function"
    },
    {
      "inputs": [
        {
          "internalType": "uint256",
          "name": "argumentId",
          "type": "uint256"
        }
      ],
      "name": "reject",
      "outputs": [],
      "stateMutability": "nonpayable",
      "type": "function"
    },
    {
      "inputs": [
        {
          "internalType": "uint256",
          "name": "argumentId",
          "type": "uint256"
        }
      ],
      "name": "endDebating",
      "outputs": [],
      "stateMutability": "nonpayable",
      "type": "function"
    }
  ],
  "bytecode": "0x608060405234801561001057600080fd5b5033600260006101000a81548173ffffffffffffffffffffffffffffffffffffffff021916908373ffffffffffffffffffffffffffffffffffffffff1602179055506000600881905550611799806100696000396000f3fe608060405234801561001057600080fd5b50600436106100a95760003560e01c80635c622a0e116100715780635c622a0e1461015057806399f4b25114610180578063b6a46b3b1461019e578063b759f954146101ba578063b8adaa11146101d6578063c82ec681146101f2576100a9565b806302fb0c5e146100ae57806315669744146100cc57806316b25b71146100e857806325c98fc61461011857806346212cbf14610134575b600080fd5b6100b6610210565b6040516100c39190610f3f565b60405180910390f35b6100e660048036038101906100e19190610fd3565b610268565b005b61010260048036038101906100fd919061102c565b610346565b60405161010f9190611074565b60405180910390f35b610132600480360381019061012d919061102c565b610397565b005b61014e6004803603810190610149919061102c565b6104b7565b005b61016a6004803603810190610165919061102c565b610656565b6040516101779190611106565b60405180910390f35b610188610680565b6040516101959190610f3f565b60405180910390f35b6101b860048036038101906101b39190611267565b610715565b005b6101d460048036038101906101cf919061102c565b61080b565b005b6101f060048036038101906101eb919061102c565b6109bc565b005b6101fa610b64565b6040516102079190610f3f565b60405180910390f35b6060600380548060200260200160405190810160405280929190818152602001828054801561025e57602002820191906000526020600020905b81548152602001906001019080831161024a575b5050505050905090565b600260009054906101000a900473ffffffffffffffffffffffffffffffffffffffff1673ffffffffffffffffffffffffffffffffffffffff163373ffffffffffffffffffffffffffffffffffffffff16146102c257600080fd5b80600160006101000a81548173ffffffffffffffffffffffffffffffffffffffff021916908373ffffffffffffffffffffffffffffffffffffffff160217905550806000806101000a81548173ffffffffffffffffffffffffffffffffffffffff021916908373ffffffffffffffffffffffffffffffffffffffff16021790555050565b60006003600481111561035c5761035b61108f565b5b600a600084815260200190815260200160002060009054906101000a900460ff16600481111561038f5761038e61108f565b5b149050919050565b600160009054906101000a900473ffffffffffffffffffffffffffffffffffffffff1673ffffffffffffffffffffffffffffffffffffffff163373ffffffffffffffffffffffffffffffffffffffff1614610427576040517f08c379a000000000000000000000000000000000000000000000000000000000815260040161041e90611333565b60405180910390fd5b61043081610346565b61046f576040517f08c379a00000000000000000000000000000000000000000000000000000000081526004016104669061139f565b60405180910390fd5b6004600a600083815260200190815260200160002060006101000a81548160ff021916908360048111156104a6576104a561108f565b5b02179055506104b481610bbc565b50565b60008054906101000a900473ffffffffffffffffffffffffffffffffffffffff1673ffffffffffffffffffffffffffffffffffffffff1663fa6f3936336040518263ffffffff1660e01b815260040161051091906113ce565b602060405180830381865afa15801561052d573d6000803e3d6000fd5b505050506040513d601f19601f820116820180604052508101906105519190611415565b610590576040517f08c379a0000000000000000000000000000000000000000000000000000000008152600401610587906114b4565b60405180910390fd5b600260048111156105a4576105a361108f565b5b600a600083815260200190815260200160002060009054906101000a900460ff1660048111156105d7576105d661108f565b5b14610617576040517f08c379a000000000000000000000000000000000000000000000000000000000815260040161060e90611546565b60405180910390fd5b6003600a600083815260200190815260200160002060006101000a81548160ff0219169083600481111561064e5761064d61108f565b5b021790555050565b6000600a600083815260200190815260200160002060009054906101000a900460ff169050919050565b6060600960003373ffffffffffffffffffffffffffffffffffffffff1673ffffffffffffffffffffffffffffffffffffffff16815260200190815260200160002080548060200260200160405190810160405280929190818152602001828054801561070b57602002820191906000526020600020905b8154815260200190600101908083116106f7575b5050505050905090565b600060085490506008600081548092919061072f90611595565b9190505550600960003373ffffffffffffffffffffffffffffffffffffffff1673ffffffffffffffffffffffffffffffffffffffff1681526020019081526020016000208190806001815401808255809150506001900390600052602060002001600090919091909150556000600a600083815260200190815260200160002060006101000a81548160ff021916908360048111156107d1576107d061108f565b5b021790555081600b600083815260200190815260200160002090805190602001906107fd929190610dd4565b5061080781610c7f565b5050565b60008054906101000a900473ffffffffffffffffffffffffffffffffffffffff1673ffffffffffffffffffffffffffffffffffffffff1663fa6f3936336040518263ffffffff1660e01b815260040161086491906113ce565b602060405180830381865afa158015610881573d6000803e3d6000fd5b505050506040513d601f19601f820116820180604052508101906108a59190611415565b6108e4576040517f08c379a00000000000000000000000000000000000000000000000000000000081526004016108db906114b4565b60405180910390fd5b600060048111156108f8576108f761108f565b5b600a600083815260200190815260200160002060009054906101000a900460ff16600481111561092b5761092a61108f565b5b1461096b576040517f08c379a000000000000000000000000000000000000000000000000000000000815260040161096290611650565b60405180910390fd5b6002600a600083815260200190815260200160002060006101000a81548160ff021916908360048111156109a2576109a161108f565b5b02179055506109b081610cc8565b6109b981610d8b565b50565b60008054906101000a900473ffffffffffffffffffffffffffffffffffffffff1673ffffffffffffffffffffffffffffffffffffffff1663fa6f3936336040518263ffffffff1660e01b8152600401610a1591906113ce565b602060405180830381865afa158015610a32573d6000803e3d6000fd5b505050506040513d601f19601f82011682018060405250810190610a569190611415565b610a95576040517f08c379a0000000000000000000000000000000000000000000000000000000008152600401610a8c906114b4565b60405180910390fd5b60006004811115610aa957610aa861108f565b5b600a600083815260200190815260200160002060009054906101000a900460ff166004811115610adc57610adb61108f565b5b14610b1c576040517f08c379a0000000000000000000000000000000000000000000000000000000008152600401610b1390611650565b60405180910390fd5b6001600a600083815260200190815260200160002060006101000a81548160ff02191690836004811115610b5357610b5261108f565b5b0217905550610b6181610cc8565b50565b60606005805480602002602001604051908101604052809291908181526020018280548015610bb257602002820191906000526020600020905b815481526020019060010190808311610b9e575b5050505050905090565b60016003805490501115610c5457600060046000838152602001908152602001600020549050600060036001600380549050610bf89190611670565b81548110610c0957610c086116a4565b5b906000526020600020015490508060038381548110610c2b57610c2a6116a4565b5b906000526020600020018190555081600460008381526020019081526020016000208190555050505b6003805480610c6657610c656116d3565b5b6001900381819060005260206000200160009055905550565b6005805490506006600083815260200190815260200160002081905550600581908060018154018082558091505060019003906000526020600020016000909190919091505550565b60016005805490501115610d6057600060066000838152602001908152602001600020549050600060056001600580549050610d049190611670565b81548110610d1557610d146116a4565b5b906000526020600020015490508060058381548110610d3757610d366116a4565b5b906000526020600020018190555081600660008381526020019081526020016000208190555050505b6005805480610d7257610d716116d3565b5b6001900381819060005260206000200160009055905550565b6003805490506004600083815260200190815260200160002081905550600381908060018154018082558091505060019003906000526020600020016000909190919091505550565b828054610de090611731565b90600052602060002090601f016020900481019282610e025760008555610e49565b82601f10610e1b57805160ff1916838001178555610e49565b82800160010185558215610e49579182015b82811115610e48578251825591602001919060010190610e2d565b5b509050610e569190610e5a565b5090565b5b80821115610e73576000816000905550600101610e5b565b5090565b600081519050919050565b600082825260208201905092915050565b6000819050602082019050919050565b6000819050919050565b610eb681610ea3565b82525050565b6000610ec88383610ead565b60208301905092915050565b6000602082019050919050565b6000610eec82610e77565b610ef68185610e82565b9350610f0183610e93565b8060005b83811015610f32578151610f198882610ebc565b9750610f2483610ed4565b925050600181019050610f05565b5085935050505092915050565b60006020820190508181036000830152610f598184610ee1565b905092915050565b6000604051905090565b600080fd5b600080fd5b600073ffffffffffffffffffffffffffffffffffffffff82169050919050565b6000610fa082610f75565b9050919050565b610fb081610f95565b8114610fbb57600080fd5b50565b600081359050610fcd81610fa7565b92915050565b600060208284031215610fe957610fe8610f6b565b5b6000610ff784828501610fbe565b91505092915050565b61100981610ea3565b811461101457600080fd5b50565b60008135905061102681611000565b92915050565b60006020828403121561104257611041610f6b565b5b600061105084828501611017565b91505092915050565b60008115159050919050565b61106e81611059565b82525050565b60006020820190506110896000830184611065565b92915050565b7f4e487b7100000000000000000000000000000000000000000000000000000000600052602160045260246000fd5b600581106110cf576110ce61108f565b5b50565b60008190506110e0826110be565b919050565b60006110f0826110d2565b9050919050565b611100816110e5565b82525050565b600060208201905061111b60008301846110f7565b92915050565b600080fd5b600080fd5b6000601f19601f8301169050919050565b7f4e487b7100000000000000000000000000000000000000000000000000000000600052604160045260246000fd5b6111748261112b565b810181811067ffffffffffffffff821117156111935761119261113c565b5b80604052505050565b60006111a6610f61565b90506111b2828261116b565b919050565b600067ffffffffffffffff8211156111d2576111d161113c565b5b6111db8261112b565b9050602081019050919050565b82818337600083830152505050565b600061120a611205846111b7565b61119c565b90508281526020810184848401111561122657611225611126565b5b6112318482856111e8565b509392505050565b600082601f83011261124e5761124d611121565b5b813561125e8482602086016111f7565b91505092915050565b60006020828403121561127d5761127c610f6b565b5b600082013567ffffffffffffffff81111561129b5761129a610f70565b5b6112a784828501611239565b91505092915050565b600082825260208201905092915050565b7f54727574684f776e61626c653a2063616e206f6e6c792062652063616c6c656460008201527f2062792054727574680000000000000000000000000000000000000000000000602082015250565b600061131d6029836112b0565b9150611328826112c1565b604082019050919050565b6000602082019050818103600083015261134c81611310565b9050919050565b7f417267756d656e7420537461747573206d757374206265204465626174696e67600082015250565b60006113896020836112b0565b915061139482611353565b602082019050919050565b600060208201905081810360008301526113b88161137c565b9050919050565b6113c881610f95565b82525050565b60006020820190506113e360008301846113bf565b92915050565b6113f281611059565b81146113fd57600080fd5b50565b60008151905061140f816113e9565b92915050565b60006020828403121561142b5761142a610f6b565b5b600061143984828501611400565b91505092915050565b7f54727574684f776e61626c653a2063616e206f6e6c792062652063616c6c656460008201527f2062792061204d6f64657261746f720000000000000000000000000000000000602082015250565b600061149e602f836112b0565b91506114a982611442565b604082019050919050565b600060208201905081810360008301526114cd81611491565b9050919050565b7f417267756d656e7420537461747573206d75737420626520696e20426574746960008201527f6e67000000000000000000000000000000000000000000000000000000000000602082015250565b60006115306022836112b0565b915061153b826114d4565b604082019050919050565b6000602082019050818103600083015261155f81611523565b9050919050565b7f4e487b7100000000000000000000000000000000000000000000000000000000600052601160045260246000fd5b60006115a082610ea3565b91507fffffffffffffffffffffffffffffffffffffffffffffffffffffffffffffffff8214156115d3576115d2611566565b5b600182019050919050565b7f417267756d656e7420537461747573206d75737420626520696e204e6565647360008201527f2052657669657700000000000000000000000000000000000000000000000000602082015250565b600061163a6027836112b0565b9150611645826115de565b604082019050919050565b600060208201905081810360008301526116698161162d565b9050919050565b600061167b82610ea3565b915061168683610ea3565b92508282101561169957611698611566565b5b828203905092915050565b7f4e487b7100000000000000000000000000000000000000000000000000000000600052603260045260246000fd5b7f4e487b7100000000000000000000000000000000000000000000000000000000600052603160045260246000fd5b7f4e487b7100000000000000000000000000000000000000000000000000000000600052602260045260246000fd5b6000600282049050600182168061174957607f821691505b6020821081141561175d5761175c611702565b5b5091905056fea2646970667358221220887eae32db234b8a9eef91dbfe3f23cd5a7ee49d62bbf9a36d4444784375d58a64736f6c634300080a0033",
  "immutableReferences": {},
  "source": "// SPDX-License-Identifier: MIT\npragma solidity >=0.4.22 <0.9.0;\n\nimport \"./Truth.sol\";\nimport \"./TruthOwnable.sol\";\nimport \"./Reviewable.sol\";\n\ncontract Arguments is TruthOwnable, Reviewable  {\n  enum Status{ NEEDS_REVIEW, REJECTED, BETTING, DEBATING, FINISHED }\n  Status constant defaultStatus = Status.NEEDS_REVIEW;\n\n  uint[] allArguments;\n  uint numArguments;\n  \n  mapping (address => uint[]) byDebaterAddress;\n\n  mapping (uint => Status) statuses;\n  mapping (uint => string) texts;\n\n  constructor() {\n    numArguments = 0;\n  }\n\n  function create(string memory _text) public {\n    uint argumentId = numArguments;\n    numArguments ++;\n    byDebaterAddress[msg.sender].push(argumentId);\n    statuses[argumentId] = defaultStatus;\n    texts[argumentId] = _text;\n    addToRequiringReview(argumentId);\n  }\n\n  function active() public view returns(uint[] memory) {\n    return activeItems;\n  }\n\n  function requiringReview() public view returns(uint[] memory) {\n    return requiringReviewItems;\n  }\n\n  function mine() public view returns(uint[] memory) {\n    return byDebaterAddress[msg.sender];\n  }\n\n  function getStatus(uint argumentId) public view returns (Status) {\n    return statuses[argumentId];\n  }\n  \n  function isDebating(uint argumentId) public view returns (bool) {\n    return statuses[argumentId] == Status.DEBATING;\n  }\n\n  function approve(uint argumentId) public onlyModerator {\n    require(statuses[argumentId] == Status.NEEDS_REVIEW, \"Argument Status must be in Needs Review\");\n    statuses[argumentId] = Status.BETTING;\n    removeFromRequiringReview(argumentId);\n    addToActive(argumentId);\n  }\n\n  function startDebating(uint argumentId) public onlyModerator {\n    require(statuses[argumentId] == Status.BETTING, \"Argument Status must be in Betting\");\n    statuses[argumentId] = Status.DEBATING;\n  }\n\n  function reject(uint argumentId) public onlyModerator {\n    require(statuses[argumentId] == Status.NEEDS_REVIEW, \"Argument Status must be in Needs Review\");\n    statuses[argumentId] = Status.REJECTED;\n    removeFromRequiringReview(argumentId);\n  }\n\n  function endDebating(uint argumentId) public onlyTruth {\n    require(isDebating(argumentId), \"Argument Status must be Debating\");\n    statuses[argumentId] = Status.FINISHED;\n    removeFromActive(argumentId);\n  }\n}\n",
  "sourcePath": "/Users/jake/socratiq/contracts/Arguments.sol",
  "compiler": {
    "name": "solc",
    "version": "0.8.10+commit.fc410830.Emscripten.clang"
  },
  "schemaVersion": "3.4.4",
  "updatedAt": "2022-01-03T07:09:45.233Z",
  "networkType": "ethereum",
  "devdoc": {
    "kind": "dev",
    "methods": {},
    "version": 1
  },
  "userdoc": {
    "kind": "user",
    "methods": {},
    "version": 1
  }
}