{
  "contractName": "Facts",
  "abi": [
    {
      "inputs": [],
      "stateMutability": "nonpayable",
      "type": "constructor"
    },
    {
      "inputs": [
        {
          "internalType": "address",
          "name": "_truthAddress",
          "type": "address"
        }
      ],
      "name": "setTruthAddress",
      "outputs": [],
      "stateMutability": "nonpayable",
      "type": "function"
    },
    {
      "inputs": [
        {
          "internalType": "uint256",
          "name": "_argumentId",
          "type": "uint256"
        },
        {
          "internalType": "string",
          "name": "_text",
          "type": "string"
        },
        {
          "internalType": "bool",
          "name": "_inSupport",
          "type": "bool"
        }
      ],
      "name": "create",
      "outputs": [],
      "stateMutability": "nonpayable",
      "type": "function"
    },
    {
      "inputs": [
        {
          "internalType": "uint256",
          "name": "_argumentId",
          "type": "uint256"
        }
      ],
      "name": "forArgument",
      "outputs": [
        {
          "internalType": "uint256[]",
          "name": "",
          "type": "uint256[]"
        }
      ],
      "stateMutability": "view",
      "type": "function",
      "constant": true
    },
    {
      "inputs": [
        {
          "internalType": "uint256",
          "name": "_argumentId",
          "type": "uint256"
        }
      ],
      "name": "truthEarned",
      "outputs": [
        {
          "components": [
            {
              "internalType": "address",
              "name": "voter",
              "type": "address"
            },
            {
              "internalType": "uint256",
              "name": "points",
              "type": "uint256"
            }
          ],
          "internalType": "struct TruthEarned[]",
          "name": "",
          "type": "tuple[]"
        }
      ],
      "stateMutability": "view",
      "type": "function",
      "constant": true
    },
    {
      "inputs": [
        {
          "internalType": "uint256",
          "name": "factId",
          "type": "uint256"
        }
      ],
      "name": "isSupporting",
      "outputs": [
        {
          "internalType": "bool",
          "name": "",
          "type": "bool"
        }
      ],
      "stateMutability": "view",
      "type": "function",
      "constant": true
    },
    {
      "inputs": [
        {
          "internalType": "uint256",
          "name": "factId",
          "type": "uint256"
        }
      ],
      "name": "argumentIdFor",
      "outputs": [
        {
          "internalType": "uint256",
          "name": "",
          "type": "uint256"
        }
      ],
      "stateMutability": "view",
      "type": "function",
      "constant": true
    },
    {
      "inputs": [],
      "name": "mine",
      "outputs": [
        {
          "internalType": "uint256[]",
          "name": "",
          "type": "uint256[]"
        }
      ],
      "stateMutability": "view",
      "type": "function",
      "constant": true
    },
    {
      "inputs": [
        {
          "internalType": "uint256",
          "name": "factId",
          "type": "uint256"
        }
      ],
      "name": "alreadyVotedFor",
      "outputs": [
        {
          "internalType": "bool",
          "name": "",
          "type": "bool"
        }
      ],
      "stateMutability": "view",
      "type": "function",
      "constant": true
    },
    {
      "inputs": [
        {
          "internalType": "uint256",
          "name": "factId",
          "type": "uint256"
        },
        {
          "internalType": "address",
          "name": "debater",
          "type": "address"
        }
      ],
      "name": "commitTruthTo",
      "outputs": [],
      "stateMutability": "nonpayable",
      "type": "function"
    },
    {
      "inputs": [
        {
          "internalType": "uint256",
          "name": "_argumentId",
          "type": "uint256"
        }
      ],
      "name": "score",
      "outputs": [
        {
          "internalType": "uint256[]",
          "name": "",
          "type": "uint256[]"
        }
      ],
      "stateMutability": "nonpayable",
      "type": "function"
    }
  ],
  "bytecode": "0x608060405234801561001057600080fd5b5033600260006101000a81548173ffffffffffffffffffffffffffffffffffffffff021916908373ffffffffffffffffffffffffffffffffffffffff16021790555060006003819055506115fb806100696000396000f3fe608060405234801561001057600080fd5b506004361061009e5760003560e01c80638b3704d9116100665780638b3704d91461016b5780639236eea41461018757806399f4b251146101b7578063b093dd2b146101d5578063d1730f1f146102055761009e565b806304b6c578146100a357806315669744146100d3578063536c4029146100ef5780636ae2c4a91461010b57806371d5df421461013b575b600080fd5b6100bd60048036038101906100b89190610e3c565b610235565b6040516100ca9190610e84565b60405180910390f35b6100ed60048036038101906100e89190610efd565b61025f565b005b6101096004803603810190610104919061109c565b61033d565b005b61012560048036038101906101209190610e3c565b61046d565b6040516101329190610e84565b60405180910390f35b61015560048036038101906101509190610e3c565b6105a4565b604051610162919061111a565b60405180910390f35b61018560048036038101906101809190611135565b6105c1565b005b6101a1600480360381019061019c9190610e3c565b6107c3565b6040516101ae9190611271565b60405180910390f35b6101bf610895565b6040516101cc9190611342565b60405180910390f35b6101ef60048036038101906101ea9190610e3c565b61092a565b6040516101fc9190611342565b60405180910390f35b61021f600480360381019061021a9190610e3c565b610995565b60405161022c9190611342565b60405180910390f35b60006009600083815260200190815260200160002060009054906101000a900460ff169050919050565b600260009054906101000a900473ffffffffffffffffffffffffffffffffffffffff1673ffffffffffffffffffffffffffffffffffffffff163373ffffffffffffffffffffffffffffffffffffffff16146102b957600080fd5b80600160006101000a81548173ffffffffffffffffffffffffffffffffffffffff021916908373ffffffffffffffffffffffffffffffffffffffff160217905550806000806101000a81548173ffffffffffffffffffffffffffffffffffffffff021916908373ffffffffffffffffffffffffffffffffffffffff16021790555050565b600060035490506003600081548092919061035790611393565b919050555082600860008381526020019081526020016000209080519060200190610383929190610d4f565b50816009600083815260200190815260200160002060006101000a81548160ff02191690831515021790555083600760008381526020019081526020016000208190555060056000858152602001908152602001600020819080600181540180825580915050600190039060005260206000200160009091909190915055600660003373ffffffffffffffffffffffffffffffffffffffff1673ffffffffffffffffffffffffffffffffffffffff16815260200190815260200160002081908060018154018082558091505060019003906000526020600020016000909190919091505550505050565b60008060056000600760008681526020019081526020016000205481526020019081526020016000208054806020026020016040519081016040528092919081815260200182805480156104e057602002820191906000526020600020905b8154815260200190600101908083116104cc575b505050505090506000815190506000805b82811015610598578115801561057b5750600c6000858381518110610519576105186113dc565b5b6020026020010151815260200190815260200160002060003373ffffffffffffffffffffffffffffffffffffffff1673ffffffffffffffffffffffffffffffffffffffff16815260200190815260200160002060009054906101000a900460ff165b1561058557600191505b808061059090611393565b9150506104f1565b50809350505050919050565b600060076000838152602001908152602001600020549050919050565b600160009054906101000a900473ffffffffffffffffffffffffffffffffffffffff1673ffffffffffffffffffffffffffffffffffffffff163373ffffffffffffffffffffffffffffffffffffffff1614610651576040517f08c379a00000000000000000000000000000000000000000000000000000000081526004016106489061148e565b60405180910390fd5b600660008273ffffffffffffffffffffffffffffffffffffffff1673ffffffffffffffffffffffffffffffffffffffff1681526020019081526020016000208290806001815401808255809150506001900390600052602060002001600090919091909150556001600c600084815260200190815260200160002060008373ffffffffffffffffffffffffffffffffffffffff1673ffffffffffffffffffffffffffffffffffffffff16815260200190815260200160002060006101000a81548160ff021916908315150217905550600b6000838152602001908152602001600020819080600181540180825580915050600190039060005260206000200160009091909190916101000a81548173ffffffffffffffffffffffffffffffffffffffff021916908373ffffffffffffffffffffffffffffffffffffffff1602179055506001600a600084815260200190815260200160002060008282546107b891906114ae565b925050819055505050565b606060046000838152602001908152602001600020805480602002602001604051908101604052809291908181526020016000905b8282101561088a57838290600052602060002090600202016040518060400160405290816000820160009054906101000a900473ffffffffffffffffffffffffffffffffffffffff1673ffffffffffffffffffffffffffffffffffffffff1673ffffffffffffffffffffffffffffffffffffffff168152602001600182015481525050815260200190600101906107f8565b505050509050919050565b6060600660003373ffffffffffffffffffffffffffffffffffffffff1673ffffffffffffffffffffffffffffffffffffffff16815260200190815260200160002080548060200260200160405190810160405280929190818152602001828054801561092057602002820191906000526020600020905b81548152602001906001019080831161090c575b5050505050905090565b60606005600083815260200190815260200160002080548060200260200160405190810160405280929190818152602001828054801561098957602002820191906000526020600020905b815481526020019060010190808311610975575b50505050509050919050565b6060600160009054906101000a900473ffffffffffffffffffffffffffffffffffffffff1673ffffffffffffffffffffffffffffffffffffffff163373ffffffffffffffffffffffffffffffffffffffff1614610a27576040517f08c379a0000000000000000000000000000000000000000000000000000000008152600401610a1e9061148e565b60405180910390fd5b6000610a328361092a565b90506000815190506000808267ffffffffffffffff811115610a5757610a56610f45565b5b604051908082528060200260200182016040528015610a855781602001602082028036833780820191505090505b50905060005b83811015610b0d576000858281518110610aa857610aa76113dc565b5b602002602001015190506000600a60008381526020019081526020016000205490508085610ad691906114ae565b945080848481518110610aec57610aeb6113dc565b5b60200260200101818152505050508080610b0590611393565b915050610a8b565b5060005b83811015610d425782828281518110610b2d57610b2c6113dc565b5b6020026020010151610b3f9190611533565b828281518110610b5257610b516113dc565b5b6020026020010181815250506000858281518110610b7357610b726113dc565b5b602002602001015190506000600b6000838152602001908152602001600020805480602002602001604051908101604052809291908181526020018280548015610c1257602002820191906000526020600020905b8160009054906101000a900473ffffffffffffffffffffffffffffffffffffffff1673ffffffffffffffffffffffffffffffffffffffff1681526020019060010190808311610bc8575b5050505050905060008151905060005b81811015610d2b57600460008c81526020019081526020016000206040518060400160405280858481518110610c5b57610c5a6113dc565b5b602002602001015173ffffffffffffffffffffffffffffffffffffffff168152602001888881518110610c9157610c906113dc565b5b6020026020010151815250908060018154018082558091505060019003906000526020600020906002020160009091909190915060008201518160000160006101000a81548173ffffffffffffffffffffffffffffffffffffffff021916908373ffffffffffffffffffffffffffffffffffffffff1602179055506020820151816001015550508080610d2390611393565b915050610c22565b505050508080610d3a90611393565b915050610b11565b5080945050505050919050565b828054610d5b90611593565b90600052602060002090601f016020900481019282610d7d5760008555610dc4565b82601f10610d9657805160ff1916838001178555610dc4565b82800160010185558215610dc4579182015b82811115610dc3578251825591602001919060010190610da8565b5b509050610dd19190610dd5565b5090565b5b80821115610dee576000816000905550600101610dd6565b5090565b6000604051905090565b600080fd5b600080fd5b6000819050919050565b610e1981610e06565b8114610e2457600080fd5b50565b600081359050610e3681610e10565b92915050565b600060208284031215610e5257610e51610dfc565b5b6000610e6084828501610e27565b91505092915050565b60008115159050919050565b610e7e81610e69565b82525050565b6000602082019050610e996000830184610e75565b92915050565b600073ffffffffffffffffffffffffffffffffffffffff82169050919050565b6000610eca82610e9f565b9050919050565b610eda81610ebf565b8114610ee557600080fd5b50565b600081359050610ef781610ed1565b92915050565b600060208284031215610f1357610f12610dfc565b5b6000610f2184828501610ee8565b91505092915050565b600080fd5b600080fd5b6000601f19601f8301169050919050565b7f4e487b7100000000000000000000000000000000000000000000000000000000600052604160045260246000fd5b610f7d82610f34565b810181811067ffffffffffffffff82111715610f9c57610f9b610f45565b5b80604052505050565b6000610faf610df2565b9050610fbb8282610f74565b919050565b600067ffffffffffffffff821115610fdb57610fda610f45565b5b610fe482610f34565b9050602081019050919050565b82818337600083830152505050565b600061101361100e84610fc0565b610fa5565b90508281526020810184848401111561102f5761102e610f2f565b5b61103a848285610ff1565b509392505050565b600082601f83011261105757611056610f2a565b5b8135611067848260208601611000565b91505092915050565b61107981610e69565b811461108457600080fd5b50565b60008135905061109681611070565b92915050565b6000806000606084860312156110b5576110b4610dfc565b5b60006110c386828701610e27565b935050602084013567ffffffffffffffff8111156110e4576110e3610e01565b5b6110f086828701611042565b925050604061110186828701611087565b9150509250925092565b61111481610e06565b82525050565b600060208201905061112f600083018461110b565b92915050565b6000806040838503121561114c5761114b610dfc565b5b600061115a85828601610e27565b925050602061116b85828601610ee8565b9150509250929050565b600081519050919050565b600082825260208201905092915050565b6000819050602082019050919050565b6111aa81610ebf565b82525050565b6111b981610e06565b82525050565b6040820160008201516111d560008501826111a1565b5060208201516111e860208501826111b0565b50505050565b60006111fa83836111bf565b60408301905092915050565b6000602082019050919050565b600061121e82611175565b6112288185611180565b935061123383611191565b8060005b8381101561126457815161124b88826111ee565b975061125683611206565b925050600181019050611237565b5085935050505092915050565b6000602082019050818103600083015261128b8184611213565b905092915050565b600081519050919050565b600082825260208201905092915050565b6000819050602082019050919050565b60006112cb83836111b0565b60208301905092915050565b6000602082019050919050565b60006112ef82611293565b6112f9818561129e565b9350611304836112af565b8060005b8381101561133557815161131c88826112bf565b9750611327836112d7565b925050600181019050611308565b5085935050505092915050565b6000602082019050818103600083015261135c81846112e4565b905092915050565b7f4e487b7100000000000000000000000000000000000000000000000000000000600052601160045260246000fd5b600061139e82610e06565b91507fffffffffffffffffffffffffffffffffffffffffffffffffffffffffffffffff8214156113d1576113d0611364565b5b600182019050919050565b7f4e487b7100000000000000000000000000000000000000000000000000000000600052603260045260246000fd5b600082825260208201905092915050565b7f54727574684f776e61626c653a2063616e206f6e6c792062652063616c6c656460008201527f2062792054727574680000000000000000000000000000000000000000000000602082015250565b600061147860298361140b565b91506114838261141c565b604082019050919050565b600060208201905081810360008301526114a78161146b565b9050919050565b60006114b982610e06565b91506114c483610e06565b9250827fffffffffffffffffffffffffffffffffffffffffffffffffffffffffffffffff038211156114f9576114f8611364565b5b828201905092915050565b7f4e487b7100000000000000000000000000000000000000000000000000000000600052601260045260246000fd5b600061153e82610e06565b915061154983610e06565b92508261155957611558611504565b5b828204905092915050565b7f4e487b7100000000000000000000000000000000000000000000000000000000600052602260045260246000fd5b600060028204905060018216806115ab57607f821691505b602082108114156115bf576115be611564565b5b5091905056fea2646970667358221220ddb5e980024b4178a93de0017ea9e8df88693fc195835811a1dbbe3a66bcc46b64736f6c634300080a0033",
  "immutableReferences": {},
  "source": "// SPDX-License-Identifier: MIT\npragma solidity >=0.4.22 <0.9.0;\n\nimport \"./Truth.sol\";\nimport \"./TruthOwnable.sol\";\n\ncontract Facts is TruthOwnable {\n  uint numFacts;\n\n  constructor() {\n    numFacts = 0;\n  }\n\n  mapping (uint => TruthEarned[]) truthEarnedByArgument;\n\n  // Scopes\n  mapping (uint => uint[]) byArgumentId;\n  mapping (address => uint[]) byDebaterAddress;\n\n  // Attributes\n  mapping (uint => uint) argumentId;\n  mapping (uint => string) text;\n  mapping (uint => bool) inSupport;\n  mapping (uint => uint) relevanceScore;\n  mapping (uint => address[]) voterAddresses;\n  mapping (uint => mapping(address => bool)) alreadyVoted;\n  \n  function create(uint _argumentId, string memory _text, bool _inSupport) public {\n    uint factId = numFacts;\n    numFacts ++;\n    text[factId] = _text;\n    inSupport[factId] = _inSupport;\n    argumentId[factId] = _argumentId;\n    byArgumentId[_argumentId].push(factId);\n    byDebaterAddress[msg.sender].push(factId);\n  }\n\n  function forArgument(uint _argumentId) public view returns(uint[] memory) {\n    return byArgumentId[_argumentId];\n  }\n\n  function truthEarned(uint _argumentId) public view returns(TruthEarned[] memory) {\n    return truthEarnedByArgument[_argumentId];\n  }\n\n  function isSupporting(uint factId) public view returns(bool) {\n    return inSupport[factId];\n  }\n  \n  function argumentIdFor(uint factId) public view returns(uint) {\n    return argumentId[factId];\n  }\n\n  function mine() public view returns(uint[] memory) {\n    return byDebaterAddress[msg.sender];\n  }\n\n  function alreadyVotedFor(uint factId) public view returns (bool) {\n    uint[] memory siblingFacts = byArgumentId[argumentId[factId]];\n    uint numSiblings = siblingFacts.length;\n    bool _alreadyVoted = false;\n    for (uint i = 0; i < numSiblings; i++) {\n      if (!_alreadyVoted && alreadyVoted[siblingFacts[i]][msg.sender]) {\n        _alreadyVoted = true;\n      }\n    }\n    return _alreadyVoted;\n  }\n\n  function commitTruthTo(uint factId, address debater) public onlyTruth {\n    byDebaterAddress[debater].push(factId);\n    alreadyVoted[factId][debater] = true;\n    voterAddresses[factId].push(debater);\n    relevanceScore[factId] += 1;\n  }\n\n  function score(uint _argumentId) public onlyTruth returns (uint[] memory) {\n    uint[] memory facts = forArgument(_argumentId);\n    uint numArgFacts = facts.length;\n    uint totalScore = 0;\n    uint[] memory scores = new uint[](numArgFacts);\n    for (uint i = 0; i < numArgFacts; i++) {\n      uint factId = facts[i];\n      uint scoreForFact = relevanceScore[factId];\n      totalScore += scoreForFact;\n      scores[i] = scoreForFact;\n    }\n    for (uint j = 0; j < numArgFacts; j++) {\n      scores[j] = scores[j] / totalScore;\n      uint factId = facts[j];\n      address[] memory voters = voterAddresses[factId];\n      uint numVoters = voters.length;\n      for (uint k = 0; k < numVoters; k++) {\n        truthEarnedByArgument[_argumentId].push(TruthEarned(voters[k], scores[j]));\n      }\n    }\n    return scores;\n  }\n}\n",
  "sourcePath": "/Users/jake/socratiq/contracts/Facts.sol",
  "compiler": {
    "name": "solc",
    "version": "0.8.10+commit.fc410830.Emscripten.clang"
  },
  "schemaVersion": "3.4.4",
  "updatedAt": "2022-01-03T07:09:45.242Z",
  "networkType": "ethereum",
  "devdoc": {
    "kind": "dev",
    "methods": {},
    "version": 1
  },
  "userdoc": {
    "kind": "user",
    "methods": {},
    "version": 1
  }
}