{
  "contractName": "Sources",
  "abi": [
    {
      "inputs": [],
      "stateMutability": "nonpayable",
      "type": "constructor"
    },
    {
      "inputs": [
        {
          "internalType": "address",
          "name": "_truthAddress",
          "type": "address"
        }
      ],
      "name": "setTruthAddress",
      "outputs": [],
      "stateMutability": "nonpayable",
      "type": "function"
    },
    {
      "inputs": [
        {
          "internalType": "uint256",
          "name": "factId",
          "type": "uint256"
        },
        {
          "internalType": "string",
          "name": "_url",
          "type": "string"
        }
      ],
      "name": "create",
      "outputs": [],
      "stateMutability": "nonpayable",
      "type": "function"
    },
    {
      "inputs": [
        {
          "internalType": "uint256",
          "name": "factId",
          "type": "uint256"
        }
      ],
      "name": "forFact",
      "outputs": [
        {
          "internalType": "uint256[]",
          "name": "",
          "type": "uint256[]"
        }
      ],
      "stateMutability": "view",
      "type": "function",
      "constant": true
    },
    {
      "inputs": [],
      "name": "mine",
      "outputs": [
        {
          "internalType": "uint256[]",
          "name": "",
          "type": "uint256[]"
        }
      ],
      "stateMutability": "view",
      "type": "function",
      "constant": true
    },
    {
      "inputs": [
        {
          "internalType": "uint256",
          "name": "factId",
          "type": "uint256"
        }
      ],
      "name": "truthEarned",
      "outputs": [
        {
          "components": [
            {
              "internalType": "address",
              "name": "voter",
              "type": "address"
            },
            {
              "internalType": "uint256",
              "name": "points",
              "type": "uint256"
            }
          ],
          "internalType": "struct TruthEarned[]",
          "name": "",
          "type": "tuple[]"
        }
      ],
      "stateMutability": "view",
      "type": "function",
      "constant": true
    },
    {
      "inputs": [
        {
          "internalType": "uint256",
          "name": "sourceId",
          "type": "uint256"
        }
      ],
      "name": "factIdFor",
      "outputs": [
        {
          "internalType": "uint256",
          "name": "",
          "type": "uint256"
        }
      ],
      "stateMutability": "view",
      "type": "function",
      "constant": true
    },
    {
      "inputs": [
        {
          "internalType": "uint256",
          "name": "sourceId",
          "type": "uint256"
        },
        {
          "internalType": "uint256",
          "name": "points",
          "type": "uint256"
        },
        {
          "internalType": "bool",
          "name": "inSupport",
          "type": "bool"
        },
        {
          "internalType": "address",
          "name": "debater",
          "type": "address"
        }
      ],
      "name": "commitTruthTo",
      "outputs": [],
      "stateMutability": "nonpayable",
      "type": "function"
    },
    {
      "inputs": [
        {
          "internalType": "uint256",
          "name": "factId",
          "type": "uint256"
        }
      ],
      "name": "score",
      "outputs": [
        {
          "internalType": "uint256",
          "name": "",
          "type": "uint256"
        }
      ],
      "stateMutability": "nonpayable",
      "type": "function"
    }
  ],
  "bytecode": "0x608060405234801561001057600080fd5b5033600260006101000a81548173ffffffffffffffffffffffffffffffffffffffff021916908373ffffffffffffffffffffffffffffffffffffffff1602179055506000600581905550611743806100696000396000f3fe608060405234801561001057600080fd5b50600436106100885760003560e01c806399f4b2511161005b57806399f4b25114610111578063cd5534cd1461012f578063d1730f1f1461015f578063e10257d91461018f57610088565b80630118fa491461008d57806315669744146100a95780639236eea4146100c5578063957e78e8146100f5575b600080fd5b6100a760048036038101906100a29190611086565b6101bf565b005b6100c360048036038101906100be9190611140565b6102c3565b005b6100df60048036038101906100da919061116d565b6103a1565b6040516100ec9190611296565b60405180910390f35b61010f600480360381019061010a91906112f0565b610473565b005b610119610839565b6040516101269190611406565b60405180910390f35b6101496004803603810190610144919061116d565b6108ce565b6040516101569190611437565b60405180910390f35b6101796004803603810190610174919061116d565b6108eb565b6040516101869190611437565b60405180910390f35b6101a960048036038101906101a4919061116d565b610de8565b6040516101b69190611406565b60405180910390f35b60006005549050600560008154809291906101d990611481565b919050555081600660008581526020019081526020016000209080519060200190610205929190610e53565b5082600760008381526020019081526020016000208190555060036000848152602001908152602001600020819080600181540180825580915050600190039060005260206000200160009091909190915055600460003373ffffffffffffffffffffffffffffffffffffffff1673ffffffffffffffffffffffffffffffffffffffff168152602001908152602001600020819080600181540180825580915050600190039060005260206000200160009091909190915055505050565b600260009054906101000a900473ffffffffffffffffffffffffffffffffffffffff1673ffffffffffffffffffffffffffffffffffffffff163373ffffffffffffffffffffffffffffffffffffffff161461031d57600080fd5b80600160006101000a81548173ffffffffffffffffffffffffffffffffffffffff021916908373ffffffffffffffffffffffffffffffffffffffff160217905550806000806101000a81548173ffffffffffffffffffffffffffffffffffffffff021916908373ffffffffffffffffffffffffffffffffffffffff16021790555050565b6060600e6000838152602001908152602001600020805480602002602001604051908101604052809291908181526020016000905b8282101561046857838290600052602060002090600202016040518060400160405290816000820160009054906101000a900473ffffffffffffffffffffffffffffffffffffffff1673ffffffffffffffffffffffffffffffffffffffff1673ffffffffffffffffffffffffffffffffffffffff168152602001600182015481525050815260200190600101906103d6565b505050509050919050565b600160009054906101000a900473ffffffffffffffffffffffffffffffffffffffff1673ffffffffffffffffffffffffffffffffffffffff163373ffffffffffffffffffffffffffffffffffffffff1614610503576040517f08c379a00000000000000000000000000000000000000000000000000000000081526004016104fa9061154d565b60405180910390fd5b600460008273ffffffffffffffffffffffffffffffffffffffff1673ffffffffffffffffffffffffffffffffffffffff16815260200190815260200160002084908060018154018082558091505060019003906000526020600020016000909190919091505581156106d35760006009600086815260200190815260200160002060008373ffffffffffffffffffffffffffffffffffffffff1673ffffffffffffffffffffffffffffffffffffffff16815260200190815260200160002054141561063d57600a6000858152602001908152602001600020819080600181540180825580915050600190039060005260206000200160009091909190916101000a81548173ffffffffffffffffffffffffffffffffffffffff021916908373ffffffffffffffffffffffffffffffffffffffff1602179055505b826009600086815260200190815260200160002060008373ffffffffffffffffffffffffffffffffffffffff1673ffffffffffffffffffffffffffffffffffffffff168152602001908152602001600020600082825461069d919061156d565b92505081905550826008600086815260200190815260200160002060008282546106c7919061156d565b92505081905550610833565b6000600c600086815260200190815260200160002060008373ffffffffffffffffffffffffffffffffffffffff1673ffffffffffffffffffffffffffffffffffffffff1681526020019081526020016000205414156107a157600d6000858152602001908152602001600020819080600181540180825580915050600190039060005260206000200160009091909190916101000a81548173ffffffffffffffffffffffffffffffffffffffff021916908373ffffffffffffffffffffffffffffffffffffffff1602179055505b82600c600086815260200190815260200160002060008373ffffffffffffffffffffffffffffffffffffffff1673ffffffffffffffffffffffffffffffffffffffff1681526020019081526020016000206000828254610801919061156d565b9250508190555082600b6000868152602001908152602001600020600082825461082b919061156d565b925050819055505b50505050565b6060600460003373ffffffffffffffffffffffffffffffffffffffff1673ffffffffffffffffffffffffffffffffffffffff1681526020019081526020016000208054806020026020016040519081016040528092919081815260200182805480156108c457602002820191906000526020600020905b8154815260200190600101908083116108b0575b5050505050905090565b600060076000838152602001908152602001600020549050919050565b6000600160009054906101000a900473ffffffffffffffffffffffffffffffffffffffff1673ffffffffffffffffffffffffffffffffffffffff163373ffffffffffffffffffffffffffffffffffffffff161461097d576040517f08c379a00000000000000000000000000000000000000000000000000000000081526004016109749061154d565b60405180910390fd5b600061098883610de8565b90506000815190506000805b82811015610ddc5760008482815181106109b1576109b06115c3565b5b602002602001015190506000600860008381526020019081526020016000205490506000600b60008481526020019081526020016000205490506000606482846109fb919061156d565b84610a069190611621565b610a109190611652565b9050600060648385610a22919061156d565b84610a2d9190611621565b610a379190611652565b9050605a821115610c07578387610a4e919061156d565b965060005b600a600087815260200190815260200160002080549050811015610c01576000600a60008881526020019081526020016000208281548110610a9857610a976115c3565b5b9060005260206000200160009054906101000a900473ffffffffffffffffffffffffffffffffffffffff16905060006009600089815260200190815260200160002060008373ffffffffffffffffffffffffffffffffffffffff1673ffffffffffffffffffffffffffffffffffffffff168152602001908152602001600020549050600e60008f815260200190815260200160002060405180604001604052808473ffffffffffffffffffffffffffffffffffffffff16815260200160646082610b629190611621565b84610b6d9190611652565b815250908060018154018082558091505060019003906000526020600020906002020160009091909190915060008201518160000160006101000a81548173ffffffffffffffffffffffffffffffffffffffff021916908373ffffffffffffffffffffffffffffffffffffffff16021790555060208201518160010155505050508080610bf990611481565b915050610a53565b50610dc4565b6032811115610dc35760005b600d600087815260200190815260200160002080549050811015610dc1576000600d60008881526020019081526020016000208281548110610c5857610c576115c3565b5b9060005260206000200160009054906101000a900473ffffffffffffffffffffffffffffffffffffffff1690506000600c600089815260200190815260200160002060008373ffffffffffffffffffffffffffffffffffffffff1673ffffffffffffffffffffffffffffffffffffffff168152602001908152602001600020549050600e60008f815260200190815260200160002060405180604001604052808473ffffffffffffffffffffffffffffffffffffffff16815260200160646082610d229190611621565b84610d2d9190611652565b815250908060018154018082558091505060019003906000526020600020906002020160009091909190915060008201518160000160006101000a81548173ffffffffffffffffffffffffffffffffffffffff021916908373ffffffffffffffffffffffffffffffffffffffff16021790555060208201518160010155505050508080610db990611481565b915050610c13565b505b5b50505050508080610dd490611481565b915050610994565b50809350505050919050565b606060036000838152602001908152602001600020805480602002602001604051908101604052809291908181526020018280548015610e4757602002820191906000526020600020905b815481526020019060010190808311610e33575b50505050509050919050565b828054610e5f906116db565b90600052602060002090601f016020900481019282610e815760008555610ec8565b82601f10610e9a57805160ff1916838001178555610ec8565b82800160010185558215610ec8579182015b82811115610ec7578251825591602001919060010190610eac565b5b509050610ed59190610ed9565b5090565b5b80821115610ef2576000816000905550600101610eda565b5090565b6000604051905090565b600080fd5b600080fd5b6000819050919050565b610f1d81610f0a565b8114610f2857600080fd5b50565b600081359050610f3a81610f14565b92915050565b600080fd5b600080fd5b6000601f19601f8301169050919050565b7f4e487b7100000000000000000000000000000000000000000000000000000000600052604160045260246000fd5b610f9382610f4a565b810181811067ffffffffffffffff82111715610fb257610fb1610f5b565b5b80604052505050565b6000610fc5610ef6565b9050610fd18282610f8a565b919050565b600067ffffffffffffffff821115610ff157610ff0610f5b565b5b610ffa82610f4a565b9050602081019050919050565b82818337600083830152505050565b600061102961102484610fd6565b610fbb565b90508281526020810184848401111561104557611044610f45565b5b611050848285611007565b509392505050565b600082601f83011261106d5761106c610f40565b5b813561107d848260208601611016565b91505092915050565b6000806040838503121561109d5761109c610f00565b5b60006110ab85828601610f2b565b925050602083013567ffffffffffffffff8111156110cc576110cb610f05565b5b6110d885828601611058565b9150509250929050565b600073ffffffffffffffffffffffffffffffffffffffff82169050919050565b600061110d826110e2565b9050919050565b61111d81611102565b811461112857600080fd5b50565b60008135905061113a81611114565b92915050565b60006020828403121561115657611155610f00565b5b60006111648482850161112b565b91505092915050565b60006020828403121561118357611182610f00565b5b600061119184828501610f2b565b91505092915050565b600081519050919050565b600082825260208201905092915050565b6000819050602082019050919050565b6111cf81611102565b82525050565b6111de81610f0a565b82525050565b6040820160008201516111fa60008501826111c6565b50602082015161120d60208501826111d5565b50505050565b600061121f83836111e4565b60408301905092915050565b6000602082019050919050565b60006112438261119a565b61124d81856111a5565b9350611258836111b6565b8060005b838110156112895781516112708882611213565b975061127b8361122b565b92505060018101905061125c565b5085935050505092915050565b600060208201905081810360008301526112b08184611238565b905092915050565b60008115159050919050565b6112cd816112b8565b81146112d857600080fd5b50565b6000813590506112ea816112c4565b92915050565b6000806000806080858703121561130a57611309610f00565b5b600061131887828801610f2b565b945050602061132987828801610f2b565b935050604061133a878288016112db565b925050606061134b8782880161112b565b91505092959194509250565b600081519050919050565b600082825260208201905092915050565b6000819050602082019050919050565b600061138f83836111d5565b60208301905092915050565b6000602082019050919050565b60006113b382611357565b6113bd8185611362565b93506113c883611373565b8060005b838110156113f95781516113e08882611383565b97506113eb8361139b565b9250506001810190506113cc565b5085935050505092915050565b6000602082019050818103600083015261142081846113a8565b905092915050565b61143181610f0a565b82525050565b600060208201905061144c6000830184611428565b92915050565b7f4e487b7100000000000000000000000000000000000000000000000000000000600052601160045260246000fd5b600061148c82610f0a565b91507fffffffffffffffffffffffffffffffffffffffffffffffffffffffffffffffff8214156114bf576114be611452565b5b600182019050919050565b600082825260208201905092915050565b7f54727574684f776e61626c653a2063616e206f6e6c792062652063616c6c656460008201527f2062792054727574680000000000000000000000000000000000000000000000602082015250565b60006115376029836114ca565b9150611542826114db565b604082019050919050565b600060208201905081810360008301526115668161152a565b9050919050565b600061157882610f0a565b915061158383610f0a565b9250827fffffffffffffffffffffffffffffffffffffffffffffffffffffffffffffffff038211156115b8576115b7611452565b5b828201905092915050565b7f4e487b7100000000000000000000000000000000000000000000000000000000600052603260045260246000fd5b7f4e487b7100000000000000000000000000000000000000000000000000000000600052601260045260246000fd5b600061162c82610f0a565b915061163783610f0a565b925082611647576116466115f2565b5b828204905092915050565b600061165d82610f0a565b915061166883610f0a565b9250817fffffffffffffffffffffffffffffffffffffffffffffffffffffffffffffffff04831182151516156116a1576116a0611452565b5b828202905092915050565b7f4e487b7100000000000000000000000000000000000000000000000000000000600052602260045260246000fd5b600060028204905060018216806116f357607f821691505b60208210811415611707576117066116ac565b5b5091905056fea26469706673582212203fa218f76ee39d532501af77792748b7b05213686d7d3a7c42337a328e3b12e764736f6c634300080a0033",
  "immutableReferences": {},
  "source": "// SPDX-License-Identifier: MIT\npragma solidity >=0.4.22 <0.9.0;\n\nimport \"./Truth.sol\";\nimport \"./TruthOwnable.sol\";\n\ncontract Sources is TruthOwnable {\n  uint constant unquestionabilityThresholdPercent = 90;\n  uint constant biasedThresholdPercent = 50;\n  uint constant sourceIdentificationRewardPercent = 130;\n\n  mapping (uint => uint[]) byFactId;\n  mapping (address => uint[]) byDebaterAddress;\n\n  uint numSources;\n\n  mapping (uint => string) url;\n\n  mapping (uint => uint) sourceToFactId;\n\n  mapping (uint => uint) supportingTruth;\n  mapping (uint => mapping(address => uint)) supportingTruthByDebaterAddress;\n  mapping (uint => address[]) supporters;\n\n  mapping (uint => uint) opposingTruth;\n  mapping (uint => mapping(address => uint)) opposingTruthByDebaterAddress;\n  mapping (uint => address[]) opposers;\n\n  mapping (uint => TruthEarned[]) truthEarnedByFact;\n\n  constructor() {\n    numSources = 0;\n  }\n\n  function create(uint factId, string memory _url) public {\n    uint sourceId = numSources;\n    numSources ++;\n    url[factId] = _url;\n    sourceToFactId[sourceId] = factId;\n    byFactId[factId].push(sourceId);\n    byDebaterAddress[msg.sender].push(sourceId);\n  }\n\n  function forFact(uint factId) public view returns(uint[] memory) {\n    return byFactId[factId];\n  }\n\n  function mine() public view returns(uint[] memory) {\n    return byDebaterAddress[msg.sender];\n  }\n\n  function truthEarned(uint factId) public view returns(TruthEarned[] memory) {\n    return truthEarnedByFact[factId];\n  }\n  \n  function factIdFor(uint sourceId) public view returns(uint) {\n    return sourceToFactId[sourceId];\n  }\n\n  function commitTruthTo(uint sourceId, uint points, bool inSupport, address debater) public onlyTruth {\n    byDebaterAddress[debater].push(sourceId);\n    if (inSupport) {\n      if (supportingTruthByDebaterAddress[sourceId][debater] == 0) supporters[sourceId].push(debater);\n      supportingTruthByDebaterAddress[sourceId][debater] += points;\n      supportingTruth[sourceId] += points;\n    } else {\n      if (opposingTruthByDebaterAddress[sourceId][debater] == 0) opposers[sourceId].push(debater);\n      opposingTruthByDebaterAddress[sourceId][debater] += points;\n      opposingTruth[sourceId] += points;\n    }\n  }\n\n  function score(uint factId) public onlyTruth returns (uint) {\n    uint[] memory factSources = forFact(factId);\n    uint numFactSources = factSources.length;\n    uint sourceScore = 0;\n    for (uint j = 0; j < numFactSources; j++) {\n      uint sourceId = factSources[j];\n      uint supporting = supportingTruth[sourceId];\n      uint opposing = opposingTruth[sourceId];\n      uint supportingPercent = supporting / (supporting + opposing) * 100;\n      uint opposingPercent = opposing / (supporting + opposing) * 100;\n      if (supportingPercent > unquestionabilityThresholdPercent) {\n        sourceScore += supporting;\n        for (uint k = 0; k < supporters[sourceId].length; k++) {\n          address supporter = supporters[sourceId][k];\n          uint committed = supportingTruthByDebaterAddress[sourceId][supporter];\n          truthEarnedByFact[factId].push(\n            TruthEarned(supporter, committed * (sourceIdentificationRewardPercent / 100))\n          );\n        }\n      } else if (opposingPercent > biasedThresholdPercent) {\n        for (uint k = 0; k < opposers[sourceId].length; k++) {\n          address opposer = opposers[sourceId][k];\n          uint committed = opposingTruthByDebaterAddress[sourceId][opposer];\n          truthEarnedByFact[factId].push(\n            TruthEarned(opposer, committed * (sourceIdentificationRewardPercent / 100))\n          );\n        }\n      }\n    }\n    return sourceScore;\n  }\n}\n",
  "sourcePath": "/Users/jake/socratiq/contracts/Sources.sol",
  "compiler": {
    "name": "solc",
    "version": "0.8.10+commit.fc410830.Emscripten.clang"
  },
  "schemaVersion": "3.4.4",
  "updatedAt": "2022-01-03T07:09:45.251Z",
  "networkType": "ethereum",
  "devdoc": {
    "kind": "dev",
    "methods": {},
    "version": 1
  },
  "userdoc": {
    "kind": "user",
    "methods": {},
    "version": 1
  }
}