{
  "contractName": "Truth",
  "abi": [
    {
      "inputs": [
        {
          "internalType": "address",
          "name": "_argumentsAddress",
          "type": "address"
        },
        {
          "internalType": "address",
          "name": "_factsAddress",
          "type": "address"
        },
        {
          "internalType": "address",
          "name": "_sourcesAddress",
          "type": "address"
        }
      ],
      "stateMutability": "nonpayable",
      "type": "constructor"
    },
    {
      "inputs": [
        {
          "internalType": "address",
          "name": "addr",
          "type": "address"
        }
      ],
      "name": "getScore",
      "outputs": [
        {
          "internalType": "uint256",
          "name": "",
          "type": "uint256"
        }
      ],
      "stateMutability": "view",
      "type": "function",
      "constant": true
    },
    {
      "inputs": [
        {
          "internalType": "uint256",
          "name": "argumentId",
          "type": "uint256"
        }
      ],
      "name": "scoreArgument",
      "outputs": [],
      "stateMutability": "nonpayable",
      "type": "function"
    },
    {
      "inputs": [
        {
          "internalType": "uint256",
          "name": "factId",
          "type": "uint256"
        }
      ],
      "name": "commitToFact",
      "outputs": [
        {
          "internalType": "bool",
          "name": "",
          "type": "bool"
        }
      ],
      "stateMutability": "nonpayable",
      "type": "function"
    },
    {
      "inputs": [
        {
          "internalType": "uint256",
          "name": "sourceId",
          "type": "uint256"
        },
        {
          "internalType": "uint256",
          "name": "points",
          "type": "uint256"
        },
        {
          "internalType": "bool",
          "name": "inSupport",
          "type": "bool"
        }
      ],
      "name": "commitToSource",
      "outputs": [
        {
          "internalType": "bool",
          "name": "",
          "type": "bool"
        }
      ],
      "stateMutability": "nonpayable",
      "type": "function"
    },
    {
      "inputs": [
        {
          "internalType": "address",
          "name": "addr",
          "type": "address"
        }
      ],
      "name": "addDebater",
      "outputs": [
        {
          "internalType": "bool",
          "name": "isNew",
          "type": "bool"
        }
      ],
      "stateMutability": "nonpayable",
      "type": "function"
    },
    {
      "inputs": [
        {
          "internalType": "address",
          "name": "addr",
          "type": "address"
        }
      ],
      "name": "isModerator",
      "outputs": [
        {
          "internalType": "bool",
          "name": "",
          "type": "bool"
        }
      ],
      "stateMutability": "view",
      "type": "function",
      "constant": true
    }
  ],
  "bytecode": "0x60806040523480156200001157600080fd5b5060405162001a6538038062001a65833981810160405281019062000037919062000174565b6000808190555082600360006101000a81548173ffffffffffffffffffffffffffffffffffffffff021916908373ffffffffffffffffffffffffffffffffffffffff16021790555081600460006101000a81548173ffffffffffffffffffffffffffffffffffffffff021916908373ffffffffffffffffffffffffffffffffffffffff16021790555080600560006101000a81548173ffffffffffffffffffffffffffffffffffffffff021916908373ffffffffffffffffffffffffffffffffffffffff160217905550505050620001d0565b600080fd5b600073ffffffffffffffffffffffffffffffffffffffff82169050919050565b60006200013c826200010f565b9050919050565b6200014e816200012f565b81146200015a57600080fd5b50565b6000815190506200016e8162000143565b92915050565b60008060006060848603121562000190576200018f6200010a565b5b6000620001a0868287016200015d565b9350506020620001b3868287016200015d565b9250506040620001c6868287016200015d565b9150509250925092565b61188580620001e06000396000f3fe608060405234801561001057600080fd5b50600436106100625760003560e01c8063097d98ba146100675780631b61ab4f14610097578063a0132d1b146100c7578063aef8fcea146100f7578063d47875d014610113578063fa6f393614610143575b600080fd5b610081600480360381019061007c9190610fd1565b610173565b60405161008e9190611033565b60405180910390f35b6100b160048036038101906100ac919061104e565b610427565b6040516100be9190611033565b60405180910390f35b6100e160048036038101906100dc91906110d9565b6106b9565b6040516100ee9190611033565b60405180910390f35b610111600480360381019061010c919061104e565b61080c565b005b61012d600480360381019061012891906110d9565b610d56565b60405161013a9190611115565b60405180910390f35b61015d600480360381019061015891906110d9565b610d9f565b60405161016a9190611033565b60405180910390f35b600080600560009054906101000a900473ffffffffffffffffffffffffffffffffffffffff1690506000600460009054906101000a900473ffffffffffffffffffffffffffffffffffffffff1690506000600360009054906101000a900473ffffffffffffffffffffffffffffffffffffffff1690508073ffffffffffffffffffffffffffffffffffffffff166316b25b718373ffffffffffffffffffffffffffffffffffffffff166371d5df428673ffffffffffffffffffffffffffffffffffffffff1663cd5534cd8c6040518263ffffffff1660e01b815260040161025a9190611115565b602060405180830381865afa158015610277573d6000803e3d6000fd5b505050506040513d601f19601f8201168201806040525081019061029b9190611145565b6040518263ffffffff1660e01b81526004016102b79190611115565b602060405180830381865afa1580156102d4573d6000803e3d6000fd5b505050506040513d601f19601f820116820180604052508101906102f89190611145565b6040518263ffffffff1660e01b81526004016103149190611115565b602060405180830381865afa158015610331573d6000803e3d6000fd5b505050506040513d601f19601f820116820180604052508101906103559190611187565b610394576040517f08c379a000000000000000000000000000000000000000000000000000000000815260040161038b90611211565b60405180910390fd5b600061039f87610df7565b90508015610419578373ffffffffffffffffffffffffffffffffffffffff1663957e78e8898989336040518563ffffffff1660e01b81526004016103e69493929190611240565b600060405180830381600087803b15801561040057600080fd5b505af1158015610414573d6000803e3d6000fd5b505050505b809450505050509392505050565b600080600460009054906101000a900473ffffffffffffffffffffffffffffffffffffffff1690508073ffffffffffffffffffffffffffffffffffffffff16636ae2c4a9846040518263ffffffff1660e01b81526004016104889190611115565b602060405180830381865afa1580156104a5573d6000803e3d6000fd5b505050506040513d601f19601f820116820180604052508101906104c99190611187565b156104d357600080fd5b6000600360009054906101000a900473ffffffffffffffffffffffffffffffffffffffff1690508073ffffffffffffffffffffffffffffffffffffffff166316b25b718373ffffffffffffffffffffffffffffffffffffffff166371d5df42876040518263ffffffff1660e01b815260040161054f9190611115565b602060405180830381865afa15801561056c573d6000803e3d6000fd5b505050506040513d601f19601f820116820180604052508101906105909190611145565b6040518263ffffffff1660e01b81526004016105ac9190611115565b602060405180830381865afa1580156105c9573d6000803e3d6000fd5b505050506040513d601f19601f820116820180604052508101906105ed9190611187565b61062c576040517f08c379a000000000000000000000000000000000000000000000000000000000815260040161062390611211565b60405180910390fd5b60006106386064610df7565b905080156106ae578273ffffffffffffffffffffffffffffffffffffffff16638b3704d986336040518363ffffffff1660e01b815260040161067b929190611285565b600060405180830381600087803b15801561069557600080fd5b505af11580156106a9573d6000803e3d6000fd5b505050505b809350505050919050565b600060011515600260008473ffffffffffffffffffffffffffffffffffffffff1673ffffffffffffffffffffffffffffffffffffffff16815260200190815260200160002060009054906101000a900460ff161515141561071d5760009050610807565b6001600260008473ffffffffffffffffffffffffffffffffffffffff1673ffffffffffffffffffffffffffffffffffffffff16815260200190815260200160002060006101000a81548160ff021916908315150217905550600160008082825461078791906112dd565b9250508190555060006003600054106107ad57606460036107a89190611333565b6107bb565b6064806107ba9190611333565b5b905080600160008573ffffffffffffffffffffffffffffffffffffffff1673ffffffffffffffffffffffffffffffffffffffff1681526020019081526020016000208190555060019150505b919050565b61081533610d9f565b610854576040517f08c379a000000000000000000000000000000000000000000000000000000000815260040161084b906113ff565b60405180910390fd5b6000600360009054906101000a900473ffffffffffffffffffffffffffffffffffffffff1690508073ffffffffffffffffffffffffffffffffffffffff166325c98fc6836040518263ffffffff1660e01b81526004016108b49190611115565b600060405180830381600087803b1580156108ce57600080fd5b505af11580156108e2573d6000803e3d6000fd5b505050506000600460009054906101000a900473ffffffffffffffffffffffffffffffffffffffff1690506000600560009054906101000a900473ffffffffffffffffffffffffffffffffffffffff16905060008273ffffffffffffffffffffffffffffffffffffffff1663b093dd2b866040518263ffffffff1660e01b815260040161096f9190611115565b600060405180830381865afa15801561098c573d6000803e3d6000fd5b505050506040513d6000823e3d601f19601f820116820180604052508101906109b59190611578565b905060008151116109fb576040517f08c379a00000000000000000000000000000000000000000000000000000000081526004016109f29061160d565b60405180910390fd5b60008373ffffffffffffffffffffffffffffffffffffffff1663d1730f1f876040518263ffffffff1660e01b8152600401610a369190611115565b6000604051808303816000875af1158015610a55573d6000803e3d6000fd5b505050506040513d6000823e3d601f19601f82011682018060405250810190610a7e9190611578565b9050610b078473ffffffffffffffffffffffffffffffffffffffff16639236eea4886040518263ffffffff1660e01b8152600401610abc9190611115565b600060405180830381865afa158015610ad9573d6000803e3d6000fd5b505050506040513d6000823e3d601f19601f82011682018060405250810190610b02919061175a565b610ea8565b60008251905060008060005b83811015610d4a576000858281518110610b3057610b2f6117a3565b5b60200260200101518873ffffffffffffffffffffffffffffffffffffffff1663d1730f1f898581518110610b6757610b666117a3565b5b60200260200101516040518263ffffffff1660e01b8152600401610b8b9190611115565b6020604051808303816000875af1158015610baa573d6000803e3d6000fd5b505050506040513d601f19601f82011682018060405250810190610bce9190611145565b610bd89190611333565b9050610c7b8873ffffffffffffffffffffffffffffffffffffffff16639236eea4898581518110610c0c57610c0b6117a3565b5b60200260200101516040518263ffffffff1660e01b8152600401610c309190611115565b600060405180830381865afa158015610c4d573d6000803e3d6000fd5b505050506040513d6000823e3d601f19601f82011682018060405250810190610c76919061175a565b610ea8565b8873ffffffffffffffffffffffffffffffffffffffff166304b6c578888481518110610caa57610ca96117a3565b5b60200260200101516040518263ffffffff1660e01b8152600401610cce9190611115565b602060405180830381865afa158015610ceb573d6000803e3d6000fd5b505050506040513d601f19601f82011682018060405250810190610d0f9190611187565b15610d27578084610d2091906112dd565b9350610d36565b8083610d3391906112dd565b92505b508080610d42906117d2565b915050610b13565b50505050505050505050565b6000600160008373ffffffffffffffffffffffffffffffffffffffff1673ffffffffffffffffffffffffffffffffffffffff168152602001908152602001600020549050919050565b60006064605f610daf9190611333565b600160008473ffffffffffffffffffffffffffffffffffffffff1673ffffffffffffffffffffffffffffffffffffffff16815260200190815260200160002054119050919050565b600081600160003373ffffffffffffffffffffffffffffffffffffffff1673ffffffffffffffffffffffffffffffffffffffff1681526020019081526020016000205410610e9e5781600160003373ffffffffffffffffffffffffffffffffffffffff1673ffffffffffffffffffffffffffffffffffffffff1681526020019081526020016000206000828254610e8e919061181b565b9250508190555060019050610ea3565b600090505b919050565b60008151905060005b81811015610f4a576000838281518110610ece57610ecd6117a3565b5b60200260200101519050806020015160016000836000015173ffffffffffffffffffffffffffffffffffffffff1673ffffffffffffffffffffffffffffffffffffffff1681526020019081526020016000206000828254610f2f91906112dd565b92505081905550508080610f42906117d2565b915050610eb1565b505050565b6000604051905090565b600080fd5b600080fd5b6000819050919050565b610f7681610f63565b8114610f8157600080fd5b50565b600081359050610f9381610f6d565b92915050565b60008115159050919050565b610fae81610f99565b8114610fb957600080fd5b50565b600081359050610fcb81610fa5565b92915050565b600080600060608486031215610fea57610fe9610f59565b5b6000610ff886828701610f84565b935050602061100986828701610f84565b925050604061101a86828701610fbc565b9150509250925092565b61102d81610f99565b82525050565b60006020820190506110486000830184611024565b92915050565b60006020828403121561106457611063610f59565b5b600061107284828501610f84565b91505092915050565b600073ffffffffffffffffffffffffffffffffffffffff82169050919050565b60006110a68261107b565b9050919050565b6110b68161109b565b81146110c157600080fd5b50565b6000813590506110d3816110ad565b92915050565b6000602082840312156110ef576110ee610f59565b5b60006110fd848285016110c4565b91505092915050565b61110f81610f63565b82525050565b600060208201905061112a6000830184611106565b92915050565b60008151905061113f81610f6d565b92915050565b60006020828403121561115b5761115a610f59565b5b600061116984828501611130565b91505092915050565b60008151905061118181610fa5565b92915050565b60006020828403121561119d5761119c610f59565b5b60006111ab84828501611172565b91505092915050565b600082825260208201905092915050565b7f417267756d656e7420537461747573206d757374206265204465626174696e67600082015250565b60006111fb6020836111b4565b9150611206826111c5565b602082019050919050565b6000602082019050818103600083015261122a816111ee565b9050919050565b61123a8161109b565b82525050565b60006080820190506112556000830187611106565b6112626020830186611106565b61126f6040830185611024565b61127c6060830184611231565b95945050505050565b600060408201905061129a6000830185611106565b6112a76020830184611231565b9392505050565b7f4e487b7100000000000000000000000000000000000000000000000000000000600052601160045260246000fd5b60006112e882610f63565b91506112f383610f63565b9250827fffffffffffffffffffffffffffffffffffffffffffffffffffffffffffffffff03821115611328576113276112ae565b5b828201905092915050565b600061133e82610f63565b915061134983610f63565b9250817fffffffffffffffffffffffffffffffffffffffffffffffffffffffffffffffff0483118215151615611382576113816112ae565b5b828202905092915050565b7f43616e206f6e6c792062652063616c6c65642062792061204d6f64657261746f60008201527f7200000000000000000000000000000000000000000000000000000000000000602082015250565b60006113e96021836111b4565b91506113f48261138d565b604082019050919050565b60006020820190508181036000830152611418816113dc565b9050919050565b600080fd5b6000601f19601f8301169050919050565b7f4e487b7100000000000000000000000000000000000000000000000000000000600052604160045260246000fd5b61146d82611424565b810181811067ffffffffffffffff8211171561148c5761148b611435565b5b80604052505050565b600061149f610f4f565b90506114ab8282611464565b919050565b600067ffffffffffffffff8211156114cb576114ca611435565b5b602082029050602081019050919050565b600080fd5b60006114f46114ef846114b0565b611495565b90508083825260208201905060208402830185811115611517576115166114dc565b5b835b81811015611540578061152c8882611130565b845260208401935050602081019050611519565b5050509392505050565b600082601f83011261155f5761155e61141f565b5b815161156f8482602086016114e1565b91505092915050565b60006020828403121561158e5761158d610f59565b5b600082015167ffffffffffffffff8111156115ac576115ab610f5e565b5b6115b88482850161154a565b91505092915050565b7f6869696900000000000000000000000000000000000000000000000000000000600082015250565b60006115f76004836111b4565b9150611602826115c1565b602082019050919050565b60006020820190508181036000830152611626816115ea565b9050919050565b600067ffffffffffffffff82111561164857611647611435565b5b602082029050602081019050919050565b600080fd5b60008151905061166d816110ad565b92915050565b60006040828403121561168957611688611659565b5b6116936040611495565b905060006116a38482850161165e565b60008301525060206116b784828501611130565b60208301525092915050565b60006116d66116d18461162d565b611495565b905080838252602082019050604084028301858111156116f9576116f86114dc565b5b835b81811015611722578061170e8882611673565b8452602084019350506040810190506116fb565b5050509392505050565b600082601f8301126117415761174061141f565b5b81516117518482602086016116c3565b91505092915050565b6000602082840312156117705761176f610f59565b5b600082015167ffffffffffffffff81111561178e5761178d610f5e565b5b61179a8482850161172c565b91505092915050565b7f4e487b7100000000000000000000000000000000000000000000000000000000600052603260045260246000fd5b60006117dd82610f63565b91507fffffffffffffffffffffffffffffffffffffffffffffffffffffffffffffffff8214156118105761180f6112ae565b5b600182019050919050565b600061182682610f63565b915061183183610f63565b925082821015611844576118436112ae565b5b82820390509291505056fea2646970667358221220442fdb583ea0b49228c17fc1514830af07d68dc79fe5a8990fba2a3340dabbee64736f6c634300080a0033",
  "immutableReferences": {},
  "source": "// SPDX-License-Identifier: MIT\npragma solidity >=0.4.22 <0.9.0;\n\nimport \"./Arguments.sol\";\nimport \"./Facts.sol\";\nimport \"./Sources.sol\";\n\nstruct TruthEarned {\n  address voter;\n  uint points;\n}\n\ncontract Truth {\n  uint constant baseUnits = 100;\n  uint constant initialAllocation = 3 * baseUnits;\n  uint constant numFirstModerators = 3;\n  uint constant firstModeratorsAllocation = 100 * baseUnits;\n  uint constant moderatorThreshold = 95 * baseUnits;\n\n  uint totalInitialized;\n\n  mapping (address => uint) scores;\n  mapping (address => bool) initialized;\n\n  address argumentsAddress;\n  address factsAddress;\n  address sourcesAddress;\n \n  constructor(address _argumentsAddress, address _factsAddress, address _sourcesAddress) {\n    totalInitialized = 0;\n    argumentsAddress = _argumentsAddress;\n    factsAddress = _factsAddress;\n    sourcesAddress = _sourcesAddress;\n  }\n\n  modifier onlyModerator() {\n    require(isModerator(msg.sender), \"Can only be called by a Moderator\");\n    _;\n  }\n\n  function getScore(address addr) public view returns(uint) {\n\t\treturn scores[addr];\n\t}\n\n  function applyTruthEarned(TruthEarned[] memory truthEarned) private {\n    uint numTruthEarned = truthEarned.length;\n    for (uint i = 0; i < numTruthEarned; i++) {\n      TruthEarned memory earning = truthEarned[i];\n      scores[earning.voter] += earning.points;\n    }\n  }\n\n  function scoreArgument(uint argumentId) public onlyModerator {\n    Arguments arguments = Arguments(argumentsAddress);\n    arguments.endDebating(argumentId);\n    Facts facts = Facts(factsAddress);\n    Sources sources = Sources(sourcesAddress);\n    uint[] memory argumentFacts = facts.forArgument(argumentId);\n    require(argumentFacts.length > 0, \"hiii\");\n    uint[] memory relevanceScores = facts.score(argumentId);\n    applyTruthEarned(facts.truthEarned(argumentId));\n    uint numFacts = argumentFacts.length;\n    uint totalSupporting = 0;\n    uint totalOpposing = 0;\n    for (uint i = 0; i < numFacts; i++) {\n      uint factScore = sources.score(argumentFacts[i]) * relevanceScores[i];\n      applyTruthEarned(sources.truthEarned(argumentFacts[i]));\n      if (facts.isSupporting(argumentFacts[i])) {\n        totalSupporting += factScore;\n      } else {\n        totalOpposing += factScore;\n      }\n    }\n    // Allocate DebateCoin based on totalSupporting vs totalOpposing\n  }\n\n  function deplete(uint points) private returns(bool hasEnough) {\n    if (scores[msg.sender] >= points) {\n      scores[msg.sender] -= points;\n      return true;\n    } else {\n      return false;\n    }\n  }\n\n  function commitToFact(uint factId) public returns(bool) {\n    Facts facts = Facts(factsAddress);\n    require(!facts.alreadyVotedFor(factId));\n    Arguments arguments = Arguments(argumentsAddress);\n    require(arguments.isDebating(facts.argumentIdFor(factId)), \"Argument Status must be Debating\");\n    bool hasEnough = deplete(baseUnits);\n    if (hasEnough) facts.commitTruthTo(factId, msg.sender);\n    return hasEnough;\n  }\n\n  function commitToSource(uint sourceId, uint points, bool inSupport) public returns(bool) {\n    Sources sources = Sources(sourcesAddress);\n    Facts facts = Facts(factsAddress);\n    Arguments arguments = Arguments(argumentsAddress);\n    require(arguments.isDebating(facts.argumentIdFor(sources.factIdFor(sourceId))), \"Argument Status must be Debating\");\n    bool hasEnough = deplete(points);\n    if (hasEnough) sources.commitTruthTo(sourceId, points, inSupport, msg.sender);\n    return hasEnough;\n  }\n\n  function addDebater(address addr) public returns(bool isNew) {\n    if (initialized[addr] == true) {\n      return false;\n    } else {\n      initialized[addr] = true;\n      totalInitialized += 1;\n      uint allocation = totalInitialized < numFirstModerators ? firstModeratorsAllocation : initialAllocation;\n      scores[addr] = allocation;\n      return true;\n    }\n  }\n\n  function isModerator(address addr) public view returns(bool) {\n    return scores[addr] > moderatorThreshold;\n  }\n}\n",
  "sourcePath": "/Users/jake/socratiq/contracts/Truth.sol",
  "compiler": {
    "name": "solc",
    "version": "0.8.10+commit.fc410830.Emscripten.clang"
  },
  "schemaVersion": "3.4.4",
  "updatedAt": "2022-01-03T07:09:45.264Z",
  "networkType": "ethereum",
  "devdoc": {
    "kind": "dev",
    "methods": {},
    "version": 1
  },
  "userdoc": {
    "kind": "user",
    "methods": {},
    "version": 1
  }
}